{
  "_format": "hh-sol-artifact-1",
  "contractName": "Alpha",
  "sourceName": "contracts/alpha.sol",
  "abi": [
    {
      "inputs": [],
      "stateMutability": "nonpayable",
      "type": "constructor"
    },
    {
      "inputs": [],
      "name": "ApprovalCallerNotOwnerNorApproved",
      "type": "error"
    },
    {
      "inputs": [],
      "name": "ApprovalQueryForNonexistentToken",
      "type": "error"
    },
    {
      "inputs": [],
      "name": "ApprovalToCurrentOwner",
      "type": "error"
    },
    {
      "inputs": [],
      "name": "ApproveToCaller",
      "type": "error"
    },
    {
      "inputs": [],
      "name": "BalanceQueryForZeroAddress",
      "type": "error"
    },
    {
      "inputs": [],
      "name": "MintToZeroAddress",
      "type": "error"
    },
    {
      "inputs": [],
      "name": "MintZeroQuantity",
      "type": "error"
    },
    {
      "inputs": [],
      "name": "OwnerIndexOutOfBounds",
      "type": "error"
    },
    {
      "inputs": [],
      "name": "OwnerQueryForNonexistentToken",
      "type": "error"
    },
    {
      "inputs": [],
      "name": "TokenIndexOutOfBounds",
      "type": "error"
    },
    {
      "inputs": [],
      "name": "TransferCallerNotOwnerNorApproved",
      "type": "error"
    },
    {
      "inputs": [],
      "name": "TransferFromIncorrectOwner",
      "type": "error"
    },
    {
      "inputs": [],
      "name": "TransferToNonERC721ReceiverImplementer",
      "type": "error"
    },
    {
      "inputs": [],
      "name": "TransferToZeroAddress",
      "type": "error"
    },
    {
      "inputs": [],
      "name": "UnableDetermineTokenOwner",
      "type": "error"
    },
    {
      "anonymous": false,
      "inputs": [
        {
          "indexed": true,
          "internalType": "address",
          "name": "owner",
          "type": "address"
        },
        {
          "indexed": true,
          "internalType": "address",
          "name": "approved",
          "type": "address"
        },
        {
          "indexed": true,
          "internalType": "uint256",
          "name": "tokenId",
          "type": "uint256"
        }
      ],
      "name": "Approval",
      "type": "event"
    },
    {
      "anonymous": false,
      "inputs": [
        {
          "indexed": true,
          "internalType": "address",
          "name": "owner",
          "type": "address"
        },
        {
          "indexed": true,
          "internalType": "address",
          "name": "operator",
          "type": "address"
        },
        {
          "indexed": false,
          "internalType": "bool",
          "name": "approved",
          "type": "bool"
        }
      ],
      "name": "ApprovalForAll",
      "type": "event"
    },
    {
      "anonymous": false,
      "inputs": [
        {
          "indexed": true,
          "internalType": "address",
          "name": "previousOwner",
          "type": "address"
        },
        {
          "indexed": true,
          "internalType": "address",
          "name": "newOwner",
          "type": "address"
        }
      ],
      "name": "OwnershipTransferred",
      "type": "event"
    },
    {
      "anonymous": false,
      "inputs": [
        {
          "indexed": true,
          "internalType": "address",
          "name": "from",
          "type": "address"
        },
        {
          "indexed": true,
          "internalType": "address",
          "name": "to",
          "type": "address"
        },
        {
          "indexed": true,
          "internalType": "uint256",
          "name": "tokenId",
          "type": "uint256"
        }
      ],
      "name": "Transfer",
      "type": "event"
    },
    {
      "inputs": [],
      "name": "MAX_PUBLIC_MINT",
      "outputs": [
        {
          "internalType": "uint256",
          "name": "",
          "type": "uint256"
        }
      ],
      "stateMutability": "view",
      "type": "function"
    },
    {
      "inputs": [],
      "name": "MAX_SUPPLY",
      "outputs": [
        {
          "internalType": "uint256",
          "name": "",
          "type": "uint256"
        }
      ],
      "stateMutability": "view",
      "type": "function"
    },
    {
      "inputs": [],
      "name": "MAX_WHITELIST_MINT",
      "outputs": [
        {
          "internalType": "uint256",
          "name": "",
          "type": "uint256"
        }
      ],
      "stateMutability": "view",
      "type": "function"
    },
    {
      "inputs": [],
      "name": "PUBLIC_SALE_PRICE",
      "outputs": [
        {
          "internalType": "uint256",
          "name": "",
          "type": "uint256"
        }
      ],
      "stateMutability": "view",
      "type": "function"
    },
    {
      "inputs": [],
      "name": "WHITELIST_SALE_PRICE",
      "outputs": [
        {
          "internalType": "uint256",
          "name": "",
          "type": "uint256"
        }
      ],
      "stateMutability": "view",
      "type": "function"
    },
    {
      "inputs": [
        {
          "internalType": "address",
          "name": "to",
          "type": "address"
        },
        {
          "internalType": "uint256",
          "name": "tokenId",
          "type": "uint256"
        }
      ],
      "name": "approve",
      "outputs": [],
      "stateMutability": "nonpayable",
      "type": "function"
    },
    {
      "inputs": [
        {
          "internalType": "address",
          "name": "owner",
          "type": "address"
        }
      ],
      "name": "balanceOf",
      "outputs": [
        {
          "internalType": "uint256",
          "name": "",
          "type": "uint256"
        }
      ],
      "stateMutability": "view",
      "type": "function"
    },
    {
      "inputs": [
        {
          "internalType": "uint256",
          "name": "tokenId",
          "type": "uint256"
        }
      ],
      "name": "getApproved",
      "outputs": [
        {
          "internalType": "address",
          "name": "",
          "type": "address"
        }
      ],
      "stateMutability": "view",
      "type": "function"
    },
    {
      "inputs": [],
      "name": "getMerkleRoot",
      "outputs": [
        {
          "internalType": "bytes32",
          "name": "",
          "type": "bytes32"
        }
      ],
      "stateMutability": "view",
      "type": "function"
    },
    {
      "inputs": [
        {
          "internalType": "address",
          "name": "owner",
          "type": "address"
        },
        {
          "internalType": "address",
          "name": "operator",
          "type": "address"
        }
      ],
      "name": "isApprovedForAll",
      "outputs": [
        {
          "internalType": "bool",
          "name": "",
          "type": "bool"
        }
      ],
      "stateMutability": "view",
      "type": "function"
    },
    {
      "inputs": [],
      "name": "isRevealed",
      "outputs": [
        {
          "internalType": "bool",
          "name": "",
          "type": "bool"
        }
      ],
      "stateMutability": "view",
      "type": "function"
    },
    {
      "inputs": [
        {
          "internalType": "uint256",
          "name": "_quantity",
          "type": "uint256"
        }
      ],
      "name": "mint",
      "outputs": [],
      "stateMutability": "payable",
      "type": "function"
    },
    {
      "inputs": [],
      "name": "name",
      "outputs": [
        {
          "internalType": "string",
          "name": "",
          "type": "string"
        }
      ],
      "stateMutability": "view",
      "type": "function"
    },
    {
      "inputs": [],
      "name": "owner",
      "outputs": [
        {
          "internalType": "address",
          "name": "",
          "type": "address"
        }
      ],
      "stateMutability": "view",
      "type": "function"
    },
    {
      "inputs": [
        {
          "internalType": "uint256",
          "name": "tokenId",
          "type": "uint256"
        }
      ],
      "name": "ownerOf",
      "outputs": [
        {
          "internalType": "address",
          "name": "",
          "type": "address"
        }
      ],
      "stateMutability": "view",
      "type": "function"
    },
    {
      "inputs": [],
      "name": "pause",
      "outputs": [
        {
          "internalType": "bool",
          "name": "",
          "type": "bool"
        }
      ],
      "stateMutability": "view",
      "type": "function"
    },
    {
      "inputs": [],
      "name": "placeholderTokenUri",
      "outputs": [
        {
          "internalType": "string",
          "name": "",
          "type": "string"
        }
      ],
      "stateMutability": "view",
      "type": "function"
    },
    {
      "inputs": [],
      "name": "publicSale",
      "outputs": [
        {
          "internalType": "bool",
          "name": "",
          "type": "bool"
        }
      ],
      "stateMutability": "view",
      "type": "function"
    },
    {
      "inputs": [],
      "name": "renounceOwnership",
      "outputs": [],
      "stateMutability": "nonpayable",
      "type": "function"
    },
    {
      "inputs": [
        {
          "internalType": "address",
          "name": "from",
          "type": "address"
        },
        {
          "internalType": "address",
          "name": "to",
          "type": "address"
        },
        {
          "internalType": "uint256",
          "name": "tokenId",
          "type": "uint256"
        }
      ],
      "name": "safeTransferFrom",
      "outputs": [],
      "stateMutability": "nonpayable",
      "type": "function"
    },
    {
      "inputs": [
        {
          "internalType": "address",
          "name": "from",
          "type": "address"
        },
        {
          "internalType": "address",
          "name": "to",
          "type": "address"
        },
        {
          "internalType": "uint256",
          "name": "tokenId",
          "type": "uint256"
        },
        {
          "internalType": "bytes",
          "name": "_data",
          "type": "bytes"
        }
      ],
      "name": "safeTransferFrom",
      "outputs": [],
      "stateMutability": "nonpayable",
      "type": "function"
    },
    {
      "inputs": [
        {
          "internalType": "address",
          "name": "operator",
          "type": "address"
        },
        {
          "internalType": "bool",
          "name": "approved",
          "type": "bool"
        }
      ],
      "name": "setApprovalForAll",
      "outputs": [],
      "stateMutability": "nonpayable",
      "type": "function"
    },
    {
      "inputs": [
        {
          "internalType": "bytes32",
          "name": "_merkleRoot",
          "type": "bytes32"
        }
      ],
      "name": "setMerkleRoot",
      "outputs": [],
      "stateMutability": "nonpayable",
      "type": "function"
    },
    {
      "inputs": [
        {
          "internalType": "string",
          "name": "_placeholderTokenUri",
          "type": "string"
        }
      ],
      "name": "setPlaceHolderUri",
      "outputs": [],
      "stateMutability": "nonpayable",
      "type": "function"
    },
    {
      "inputs": [
        {
          "internalType": "string",
          "name": "_baseTokenUri",
          "type": "string"
        }
      ],
      "name": "setTokenUri",
      "outputs": [],
      "stateMutability": "nonpayable",
      "type": "function"
    },
    {
      "inputs": [
        {
          "internalType": "bytes4",
          "name": "interfaceId",
          "type": "bytes4"
        }
      ],
      "name": "supportsInterface",
      "outputs": [
        {
          "internalType": "bool",
          "name": "",
          "type": "bool"
        }
      ],
      "stateMutability": "view",
      "type": "function"
    },
    {
      "inputs": [],
      "name": "symbol",
      "outputs": [
        {
          "internalType": "string",
          "name": "",
          "type": "string"
        }
      ],
      "stateMutability": "view",
      "type": "function"
    },
    {
      "inputs": [],
      "name": "teamMint",
      "outputs": [],
      "stateMutability": "nonpayable",
      "type": "function"
    },
    {
      "inputs": [],
      "name": "teamMinted",
      "outputs": [
        {
          "internalType": "bool",
          "name": "",
          "type": "bool"
        }
      ],
      "stateMutability": "view",
      "type": "function"
    },
    {
      "inputs": [],
      "name": "togglePause",
      "outputs": [],
      "stateMutability": "nonpayable",
      "type": "function"
    },
    {
      "inputs": [],
      "name": "togglePublicSale",
      "outputs": [],
      "stateMutability": "nonpayable",
      "type": "function"
    },
    {
      "inputs": [],
      "name": "toggleReveal",
      "outputs": [],
      "stateMutability": "nonpayable",
      "type": "function"
    },
    {
      "inputs": [],
      "name": "toggleWhiteListSale",
      "outputs": [],
      "stateMutability": "nonpayable",
      "type": "function"
    },
    {
      "inputs": [
        {
          "internalType": "uint256",
          "name": "index",
          "type": "uint256"
        }
      ],
      "name": "tokenByIndex",
      "outputs": [
        {
          "internalType": "uint256",
          "name": "",
          "type": "uint256"
        }
      ],
      "stateMutability": "view",
      "type": "function"
    },
    {
      "inputs": [
        {
          "internalType": "address",
          "name": "owner",
          "type": "address"
        },
        {
          "internalType": "uint256",
          "name": "index",
          "type": "uint256"
        }
      ],
      "name": "tokenOfOwnerByIndex",
      "outputs": [
        {
          "internalType": "uint256",
          "name": "",
          "type": "uint256"
        }
      ],
      "stateMutability": "view",
      "type": "function"
    },
    {
      "inputs": [
        {
          "internalType": "uint256",
          "name": "tokenId",
          "type": "uint256"
        }
      ],
      "name": "tokenURI",
      "outputs": [
        {
          "internalType": "string",
          "name": "",
          "type": "string"
        }
      ],
      "stateMutability": "view",
      "type": "function"
    },
    {
      "inputs": [
        {
          "internalType": "address",
          "name": "",
          "type": "address"
        }
      ],
      "name": "totalPublicMint",
      "outputs": [
        {
          "internalType": "uint256",
          "name": "",
          "type": "uint256"
        }
      ],
      "stateMutability": "view",
      "type": "function"
    },
    {
      "inputs": [],
      "name": "totalSupply",
      "outputs": [
        {
          "internalType": "uint256",
          "name": "",
          "type": "uint256"
        }
      ],
      "stateMutability": "view",
      "type": "function"
    },
    {
      "inputs": [
        {
          "internalType": "address",
          "name": "",
          "type": "address"
        }
      ],
      "name": "totalWhitelistMint",
      "outputs": [
        {
          "internalType": "uint256",
          "name": "",
          "type": "uint256"
        }
      ],
      "stateMutability": "view",
      "type": "function"
    },
    {
      "inputs": [
        {
          "internalType": "address",
          "name": "from",
          "type": "address"
        },
        {
          "internalType": "address",
          "name": "to",
          "type": "address"
        },
        {
          "internalType": "uint256",
          "name": "tokenId",
          "type": "uint256"
        }
      ],
      "name": "transferFrom",
      "outputs": [],
      "stateMutability": "nonpayable",
      "type": "function"
    },
    {
      "inputs": [
        {
          "internalType": "address",
          "name": "newOwner",
          "type": "address"
        }
      ],
      "name": "transferOwnership",
      "outputs": [],
      "stateMutability": "nonpayable",
      "type": "function"
    },
    {
      "inputs": [],
      "name": "walletOf",
      "outputs": [
        {
          "internalType": "uint256[]",
          "name": "",
          "type": "uint256[]"
        }
      ],
      "stateMutability": "view",
      "type": "function"
    },
    {
      "inputs": [],
      "name": "whiteListSale",
      "outputs": [
        {
          "internalType": "bool",
          "name": "",
          "type": "bool"
        }
      ],
      "stateMutability": "view",
      "type": "function"
    },
    {
      "inputs": [
        {
          "internalType": "bytes32[]",
          "name": "_merkleProof",
          "type": "bytes32[]"
        },
        {
          "internalType": "uint256",
          "name": "_quantity",
          "type": "uint256"
        }
      ],
      "name": "whitelistMint",
      "outputs": [],
      "stateMutability": "payable",
      "type": "function"
    },
    {
      "inputs": [],
      "name": "withdraw",
      "outputs": [],
      "stateMutability": "nonpayable",
      "type": "function"
    }
  ],
  "bytecode": "0x60806040523480156200001157600080fd5b506040518060400160405280600581526020017f416c7068610000000000000000000000000000000000000000000000000000008152506040518060400160405280600381526020017f414c500000000000000000000000000000000000000000000000000000000000815250816001908051906020019062000096929190620001a6565b508060029080519060200190620000af929190620001a6565b505050620000d2620000c6620000d860201b60201c565b620000e060201b60201c565b620002bb565b600033905090565b6000600760009054906101000a900473ffffffffffffffffffffffffffffffffffffffff16905081600760006101000a81548173ffffffffffffffffffffffffffffffffffffffff021916908373ffffffffffffffffffffffffffffffffffffffff1602179055508173ffffffffffffffffffffffffffffffffffffffff168173ffffffffffffffffffffffffffffffffffffffff167f8be0079c531659141344cd1fd0a4f28419497f9722a3daafe3b4186f6b6457e060405160405180910390a35050565b828054620001b49062000256565b90600052602060002090601f016020900481019282620001d8576000855562000224565b82601f10620001f357805160ff191683800117855562000224565b8280016001018555821562000224579182015b828111156200022357825182559160200191906001019062000206565b5b50905062000233919062000237565b5090565b5b808211156200025257600081600090555060010162000238565b5090565b600060028204905060018216806200026f57607f821691505b602082108114156200028657620002856200028c565b5b50919050565b7f4e487b7100000000000000000000000000000000000000000000000000000000600052602260045260246000fd5b614bfc80620002cb6000396000f3fe6080604052600436106102725760003560e01c806365f130971161014f578063a22cb465116100c1578063c4ae31681161007a578063c4ae316814610902578063c87b56dd14610919578063e222c7f914610956578063e8b5498d1461096d578063e985e9c514610998578063f2fde38b146109d557610272565b8063a22cb4651461081a578063b0962c5314610843578063b88d4fde1461086c578063ba7a86b814610895578063bc912e1a146108ac578063c08dfd3c146108d757610272565b80638456cb59116101135780638456cb591461073b57806386a173ee146107665780638bb64a8c146107915780638da5cb5b146107a857806395d89b41146107d3578063a0712d68146107fe57610272565b806365f130971461066857806370a0823114610693578063715018a6146106d05780637cb64759146106e757806383a974a21461071057610272565b80632f745c59116101e857806349590657116101ac57806349590657146105565780634cf5f7a4146105815780634f6ccce7146105ac57806354214f69146105e95780635b8ad429146106145780636352211e1461062b57610272565b80632f745c591461048357806332cb6b0c146104c057806333bc1c5c146104eb5780633ccfd60b1461051657806342842e0e1461052d57610272565b8063081812fc1161023a578063081812fc14610370578063095ea7b3146103ad57806318160ddd146103d65780631c16521c1461040157806323b872dd1461043e5780632904e6d91461046757610272565b806301ffc9a7146102775780630345e3cb146102b45780630675b7c6146102f157806306fdde031461031a57806307e89ec014610345575b600080fd5b34801561028357600080fd5b5061029e60048036038101906102999190613a2d565b6109fe565b6040516102ab9190614041565b60405180910390f35b3480156102c057600080fd5b506102db60048036038101906102d69190613809565b610b48565b6040516102e89190614299565b60405180910390f35b3480156102fd57600080fd5b5061031860048036038101906103139190613a7f565b610b60565b005b34801561032657600080fd5b5061032f610bf6565b60405161033c9190614077565b60405180910390f35b34801561035157600080fd5b5061035a610c88565b6040516103679190614299565b60405180910390f35b34801561037c57600080fd5b5061039760048036038101906103929190613ac0565b610c93565b6040516103a49190613fb8565b60405180910390f35b3480156103b957600080fd5b506103d460048036038101906103cf9190613974565b610d0f565b005b3480156103e257600080fd5b506103eb610e1a565b6040516103f89190614299565b60405180910390f35b34801561040d57600080fd5b5061042860048036038101906104239190613809565b610e23565b6040516104359190614299565b60405180910390f35b34801561044a57600080fd5b506104656004803603810190610460919061386e565b610e3b565b005b610481600480360381019061047c91906139b0565b610e4b565b005b34801561048f57600080fd5b506104aa60048036038101906104a59190613974565b61111d565b6040516104b79190614299565b60405180910390f35b3480156104cc57600080fd5b506104d5611304565b6040516104e29190614299565b60405180910390f35b3480156104f757600080fd5b50610500611309565b60405161050d9190614041565b60405180910390f35b34801561052257600080fd5b5061052b61131c565b005b34801561053957600080fd5b50610554600480360381019061054f919061386e565b611490565b005b34801561056257600080fd5b5061056b6114b0565b604051610578919061405c565b60405180910390f35b34801561058d57600080fd5b506105966114ba565b6040516105a39190614077565b60405180910390f35b3480156105b857600080fd5b506105d360048036038101906105ce9190613ac0565b611548565b6040516105e09190614299565b60405180910390f35b3480156105f557600080fd5b506105fe611592565b60405161060b9190614041565b60405180910390f35b34801561062057600080fd5b506106296115a5565b005b34801561063757600080fd5b50610652600480360381019061064d9190613ac0565b61164d565b60405161065f9190613fb8565b60405180910390f35b34801561067457600080fd5b5061067d611663565b60405161068a9190614299565b60405180910390f35b34801561069f57600080fd5b506106ba60048036038101906106b59190613809565b611668565b6040516106c79190614299565b60405180910390f35b3480156106dc57600080fd5b506106e5611748565b005b3480156106f357600080fd5b5061070e60048036038101906107099190613a04565b6117d0565b005b34801561071c57600080fd5b50610725611856565b604051610732919061401f565b60405180910390f35b34801561074757600080fd5b50610750611954565b60405161075d9190614041565b60405180910390f35b34801561077257600080fd5b5061077b611967565b6040516107889190614041565b60405180910390f35b34801561079d57600080fd5b506107a661197a565b005b3480156107b457600080fd5b506107bd611a22565b6040516107ca9190613fb8565b60405180910390f35b3480156107df57600080fd5b506107e8611a4c565b6040516107f59190614077565b60405180910390f35b61081860048036038101906108139190613ac0565b611ade565b005b34801561082657600080fd5b50610841600480360381019061083c9190613938565b611d37565b005b34801561084f57600080fd5b5061086a60048036038101906108659190613a7f565b611eaf565b005b34801561087857600080fd5b50610893600480360381019061088e91906138bd565b611f45565b005b3480156108a157600080fd5b506108aa611f98565b005b3480156108b857600080fd5b506108c161208c565b6040516108ce9190614299565b60405180910390f35b3480156108e357600080fd5b506108ec612097565b6040516108f99190614299565b60405180910390f35b34801561090e57600080fd5b5061091761209c565b005b34801561092557600080fd5b50610940600480360381019061093b9190613ac0565b612144565b60405161094d9190614077565b60405180910390f35b34801561096257600080fd5b5061096b612293565b005b34801561097957600080fd5b5061098261233b565b60405161098f9190614041565b60405180910390f35b3480156109a457600080fd5b506109bf60048036038101906109ba9190613832565b61234e565b6040516109cc9190614041565b60405180910390f35b3480156109e157600080fd5b506109fc60048036038101906109f79190613809565b6123e2565b005b60007f80ac58cd000000000000000000000000000000000000000000000000000000007bffffffffffffffffffffffffffffffffffffffffffffffffffffffff1916827bffffffffffffffffffffffffffffffffffffffffffffffffffffffff19161480610ac957507f5b5e139f000000000000000000000000000000000000000000000000000000007bffffffffffffffffffffffffffffffffffffffffffffffffffffffff1916827bffffffffffffffffffffffffffffffffffffffffffffffffffffffff1916145b80610b3157507f780e9d63000000000000000000000000000000000000000000000000000000007bffffffffffffffffffffffffffffffffffffffffffffffffffffffff1916827bffffffffffffffffffffffffffffffffffffffffffffffffffffffff1916145b80610b415750610b40826124da565b5b9050919050565b600d6020528060005260406000206000915090505481565b610b68612544565b73ffffffffffffffffffffffffffffffffffffffff16610b86611a22565b73ffffffffffffffffffffffffffffffffffffffff1614610bdc576040517f08c379a0000000000000000000000000000000000000000000000000000000008152600401610bd3906141b9565b60405180910390fd5b8060089080519060200190610bf2929190613548565b5050565b606060018054610c05906145d8565b80601f0160208091040260200160405190810160405280929190818152602001828054610c31906145d8565b8015610c7e5780601f10610c5357610100808354040283529160200191610c7e565b820191906000526020600020905b815481529060010190602001808311610c6157829003601f168201915b5050505050905090565b662386f26fc1000081565b6000610c9e8261254c565b610cd4576040517fcf4700e400000000000000000000000000000000000000000000000000000000815260040160405180910390fd5b6005600083815260200190815260200160002060009054906101000a900473ffffffffffffffffffffffffffffffffffffffff169050919050565b6000610d1a8261164d565b90508073ffffffffffffffffffffffffffffffffffffffff168373ffffffffffffffffffffffffffffffffffffffff161415610d82576040517f943f7b8c00000000000000000000000000000000000000000000000000000000815260040160405180910390fd5b8073ffffffffffffffffffffffffffffffffffffffff16610da1612544565b73ffffffffffffffffffffffffffffffffffffffff1614158015610dd35750610dd181610dcc612544565b61234e565b155b15610e0a576040517fcfb3b94200000000000000000000000000000000000000000000000000000000815260040160405180910390fd5b610e15838383612559565b505050565b60008054905090565b600c6020528060005260406000206000915090505481565b610e4683838361260b565b505050565b3373ffffffffffffffffffffffffffffffffffffffff163273ffffffffffffffffffffffffffffffffffffffff1614610eb9576040517f08c379a0000000000000000000000000000000000000000000000000000000008152600401610eb0906140b9565b60405180910390fd5b600a60029054906101000a900460ff16610f08576040517f08c379a0000000000000000000000000000000000000000000000000000000008152600401610eff90614179565b60405180910390fd5b600a81610f13610e1a565b610f1d9190614403565b1115610f5e576040517f08c379a0000000000000000000000000000000000000000000000000000000008152600401610f5590614199565b60405180910390fd5b600181600d60003373ffffffffffffffffffffffffffffffffffffffff1673ffffffffffffffffffffffffffffffffffffffff16815260200190815260200160002054610fab9190614403565b1115610fec576040517f08c379a0000000000000000000000000000000000000000000000000000000008152600401610fe390614139565b60405180910390fd5b80662386f26fc10000610fff919061448a565b341015611041576040517f08c379a000000000000000000000000000000000000000000000000000000000815260040161103890614119565b60405180910390fd5b6000336040516020016110549190613f59565b60405160208183030381529060405280519060200120905061107983600b5483612b30565b6110b8576040517f08c379a00000000000000000000000000000000000000000000000000000000081526004016110af90614099565b60405180910390fd5b81600d60003373ffffffffffffffffffffffffffffffffffffffff1673ffffffffffffffffffffffffffffffffffffffff16815260200190815260200160002060008282546111079190614403565b925050819055506111183383612b47565b505050565b600061112883611668565b8210611160576040517f0ddac30e00000000000000000000000000000000000000000000000000000000815260040160405180910390fd5b600061116a610e1a565b905060008060005b838110156112c4576000600360008381526020019081526020016000206040518060400160405290816000820160009054906101000a900473ffffffffffffffffffffffffffffffffffffffff1673ffffffffffffffffffffffffffffffffffffffff1673ffffffffffffffffffffffffffffffffffffffff1681526020016000820160149054906101000a900467ffffffffffffffff1667ffffffffffffffff1667ffffffffffffffff16815250509050600073ffffffffffffffffffffffffffffffffffffffff16816000015173ffffffffffffffffffffffffffffffffffffffff161461126457806000015192505b8773ffffffffffffffffffffffffffffffffffffffff168373ffffffffffffffffffffffffffffffffffffffff1614156112b657868414156112ad5781955050505050506112fe565b83806001019450505b508080600101915050611172565b5060006112fa577f4e487b7100000000000000000000000000000000000000000000000000000000600052600160045260246000fd5b5050505b92915050565b600a81565b600a60019054906101000a900460ff1681565b611324612544565b73ffffffffffffffffffffffffffffffffffffffff16611342611a22565b73ffffffffffffffffffffffffffffffffffffffff1614611398576040517f08c379a000000000000000000000000000000000000000000000000000000000815260040161138f906141b9565b60405180910390fd5b6000479050600081116113e0576040517f08c379a00000000000000000000000000000000000000000000000000000000081526004016113d7906141f9565b60405180910390fd5b60003373ffffffffffffffffffffffffffffffffffffffff168260405161140690613fa3565b60006040518083038185875af1925050503d8060008114611443576040519150601f19603f3d011682016040523d82523d6000602084013e611448565b606091505b505090508061148c576040517f08c379a000000000000000000000000000000000000000000000000000000000815260040161148390614239565b60405180910390fd5b5050565b6114ab83838360405180602001604052806000815250611f45565b505050565b6000600b54905090565b600980546114c7906145d8565b80601f01602080910402602001604051908101604052809291908181526020018280546114f3906145d8565b80156115405780601f1061151557610100808354040283529160200191611540565b820191906000526020600020905b81548152906001019060200180831161152357829003601f168201915b505050505081565b6000611552610e1a565b821061158a576040517fa723001c00000000000000000000000000000000000000000000000000000000815260040160405180910390fd5b819050919050565b600a60009054906101000a900460ff1681565b6115ad612544565b73ffffffffffffffffffffffffffffffffffffffff166115cb611a22565b73ffffffffffffffffffffffffffffffffffffffff1614611621576040517f08c379a0000000000000000000000000000000000000000000000000000000008152600401611618906141b9565b60405180910390fd5b600a60009054906101000a900460ff1615600a60006101000a81548160ff021916908315150217905550565b600061165882612b65565b600001519050919050565b600281565b60008073ffffffffffffffffffffffffffffffffffffffff168273ffffffffffffffffffffffffffffffffffffffff1614156116d0576040517f8f4eb60400000000000000000000000000000000000000000000000000000000815260040160405180910390fd5b600460008373ffffffffffffffffffffffffffffffffffffffff1673ffffffffffffffffffffffffffffffffffffffff16815260200190815260200160002060000160009054906101000a90046fffffffffffffffffffffffffffffffff166fffffffffffffffffffffffffffffffff169050919050565b611750612544565b73ffffffffffffffffffffffffffffffffffffffff1661176e611a22565b73ffffffffffffffffffffffffffffffffffffffff16146117c4576040517f08c379a00000000000000000000000000000000000000000000000000000000081526004016117bb906141b9565b60405180910390fd5b6117ce6000612ced565b565b6117d8612544565b73ffffffffffffffffffffffffffffffffffffffff166117f6611a22565b73ffffffffffffffffffffffffffffffffffffffff161461184c576040517f08c379a0000000000000000000000000000000000000000000000000000000008152600401611843906141b9565b60405180910390fd5b80600b8190555050565b60606000339050600061186882611668565b905060008167ffffffffffffffff8111156118ac577f4e487b7100000000000000000000000000000000000000000000000000000000600052604160045260246000fd5b6040519080825280602002602001820160405280156118da5781602001602082028036833780820191505090505b50905060005b8281101561194a576118f2848261111d565b82828151811061192b577f4e487b7100000000000000000000000000000000000000000000000000000000600052603260045260246000fd5b60200260200101818152505080806119429061463b565b9150506118e0565b5080935050505090565b600a60039054906101000a900460ff1681565b600a60029054906101000a900460ff1681565b611982612544565b73ffffffffffffffffffffffffffffffffffffffff166119a0611a22565b73ffffffffffffffffffffffffffffffffffffffff16146119f6576040517f08c379a00000000000000000000000000000000000000000000000000000000081526004016119ed906141b9565b60405180910390fd5b600a60029054906101000a900460ff1615600a60026101000a81548160ff021916908315150217905550565b6000600760009054906101000a900473ffffffffffffffffffffffffffffffffffffffff16905090565b606060028054611a5b906145d8565b80601f0160208091040260200160405190810160405280929190818152602001828054611a87906145d8565b8015611ad45780601f10611aa957610100808354040283529160200191611ad4565b820191906000526020600020905b815481529060010190602001808311611ab757829003601f168201915b5050505050905090565b3373ffffffffffffffffffffffffffffffffffffffff163273ffffffffffffffffffffffffffffffffffffffff1614611b4c576040517f08c379a0000000000000000000000000000000000000000000000000000000008152600401611b43906140b9565b60405180910390fd5b600a60019054906101000a900460ff16611b9b576040517f08c379a0000000000000000000000000000000000000000000000000000000008152600401611b9290614279565b60405180910390fd5b600a81611ba6610e1a565b611bb09190614403565b1115611bf1576040517f08c379a0000000000000000000000000000000000000000000000000000000008152600401611be890614219565b60405180910390fd5b600281600c60003373ffffffffffffffffffffffffffffffffffffffff1673ffffffffffffffffffffffffffffffffffffffff16815260200190815260200160002054611c3e9190614403565b1115611c7f576040517f08c379a0000000000000000000000000000000000000000000000000000000008152600401611c76906140f9565b60405180910390fd5b80662386f26fc10000611c92919061448a565b341015611cd4576040517f08c379a0000000000000000000000000000000000000000000000000000000008152600401611ccb90614259565b60405180910390fd5b80600c60003373ffffffffffffffffffffffffffffffffffffffff1673ffffffffffffffffffffffffffffffffffffffff1681526020019081526020016000206000828254611d239190614403565b92505081905550611d343382612b47565b50565b611d3f612544565b73ffffffffffffffffffffffffffffffffffffffff168273ffffffffffffffffffffffffffffffffffffffff161415611da4576040517fb06307db00000000000000000000000000000000000000000000000000000000815260040160405180910390fd5b8060066000611db1612544565b73ffffffffffffffffffffffffffffffffffffffff1673ffffffffffffffffffffffffffffffffffffffff16815260200190815260200160002060008473ffffffffffffffffffffffffffffffffffffffff1673ffffffffffffffffffffffffffffffffffffffff16815260200190815260200160002060006101000a81548160ff0219169083151502179055508173ffffffffffffffffffffffffffffffffffffffff16611e5e612544565b73ffffffffffffffffffffffffffffffffffffffff167f17307eab39ab6107e8899845ad3d59bd9653f200f220920489ca2b5937696c3183604051611ea39190614041565b60405180910390a35050565b611eb7612544565b73ffffffffffffffffffffffffffffffffffffffff16611ed5611a22565b73ffffffffffffffffffffffffffffffffffffffff1614611f2b576040517f08c379a0000000000000000000000000000000000000000000000000000000008152600401611f22906141b9565b60405180910390fd5b8060099080519060200190611f41929190613548565b5050565b611f5084848461260b565b611f5c84848484612db3565b611f92576040517fd1a57ed600000000000000000000000000000000000000000000000000000000815260040160405180910390fd5b50505050565b611fa0612544565b73ffffffffffffffffffffffffffffffffffffffff16611fbe611a22565b73ffffffffffffffffffffffffffffffffffffffff1614612014576040517f08c379a000000000000000000000000000000000000000000000000000000000815260040161200b906141b9565b60405180910390fd5b600a60049054906101000a900460ff1615612064576040517f08c379a000000000000000000000000000000000000000000000000000000000815260040161205b90614159565b60405180910390fd5b6001600a60046101000a81548160ff02191690831515021790555061208a3360c8612b47565b565b662386f26fc1000081565b600181565b6120a4612544565b73ffffffffffffffffffffffffffffffffffffffff166120c2611a22565b73ffffffffffffffffffffffffffffffffffffffff1614612118576040517f08c379a000000000000000000000000000000000000000000000000000000000815260040161210f906141b9565b60405180910390fd5b600a60039054906101000a900460ff1615600a60036101000a81548160ff021916908315150217905550565b606061214f8261254c565b61218e576040517f08c379a0000000000000000000000000000000000000000000000000000000008152600401612185906141d9565b60405180910390fd5b600a60009054906101000a900460ff1661223457600980546121af906145d8565b80601f01602080910402602001604051908101604052809291908181526020018280546121db906145d8565b80156122285780601f106121fd57610100808354040283529160200191612228565b820191906000526020600020905b81548152906001019060200180831161220b57829003601f168201915b5050505050905061228e565b600060088054612243906145d8565b90501161225f576040518060200160405280600081525061228b565b600861226a83612f41565b60405160200161227b929190613f74565b6040516020818303038152906040525b90505b919050565b61229b612544565b73ffffffffffffffffffffffffffffffffffffffff166122b9611a22565b73ffffffffffffffffffffffffffffffffffffffff161461230f576040517f08c379a0000000000000000000000000000000000000000000000000000000008152600401612306906141b9565b60405180910390fd5b600a60019054906101000a900460ff1615600a60016101000a81548160ff021916908315150217905550565b600a60049054906101000a900460ff1681565b6000600660008473ffffffffffffffffffffffffffffffffffffffff1673ffffffffffffffffffffffffffffffffffffffff16815260200190815260200160002060008373ffffffffffffffffffffffffffffffffffffffff1673ffffffffffffffffffffffffffffffffffffffff16815260200190815260200160002060009054906101000a900460ff16905092915050565b6123ea612544565b73ffffffffffffffffffffffffffffffffffffffff16612408611a22565b73ffffffffffffffffffffffffffffffffffffffff161461245e576040517f08c379a0000000000000000000000000000000000000000000000000000000008152600401612455906141b9565b60405180910390fd5b600073ffffffffffffffffffffffffffffffffffffffff168173ffffffffffffffffffffffffffffffffffffffff1614156124ce576040517f08c379a00000000000000000000000000000000000000000000000000000000081526004016124c5906140d9565b60405180910390fd5b6124d781612ced565b50565b60007f01ffc9a7000000000000000000000000000000000000000000000000000000007bffffffffffffffffffffffffffffffffffffffffffffffffffffffff1916827bffffffffffffffffffffffffffffffffffffffffffffffffffffffff1916149050919050565b600033905090565b6000805482109050919050565b826005600084815260200190815260200160002060006101000a81548173ffffffffffffffffffffffffffffffffffffffff021916908373ffffffffffffffffffffffffffffffffffffffff160217905550818373ffffffffffffffffffffffffffffffffffffffff168273ffffffffffffffffffffffffffffffffffffffff167f8c5be1e5ebec7d5bd14f71427d1e84f3dd0314c0f7b2291e5b200ac8c7c3b92560405160405180910390a4505050565b600061261682612b65565b90506000816000015173ffffffffffffffffffffffffffffffffffffffff1661263d612544565b73ffffffffffffffffffffffffffffffffffffffff1614806126995750612662612544565b73ffffffffffffffffffffffffffffffffffffffff1661268184610c93565b73ffffffffffffffffffffffffffffffffffffffff16145b806126b557506126b482600001516126af612544565b61234e565b5b9050806126ee576040517f59c896be00000000000000000000000000000000000000000000000000000000815260040160405180910390fd5b8473ffffffffffffffffffffffffffffffffffffffff16826000015173ffffffffffffffffffffffffffffffffffffffff1614612757576040517fa114810000000000000000000000000000000000000000000000000000000000815260040160405180910390fd5b600073ffffffffffffffffffffffffffffffffffffffff168473ffffffffffffffffffffffffffffffffffffffff1614156127be576040517fea553b3400000000000000000000000000000000000000000000000000000000815260040160405180910390fd5b6127cb85858560016130ee565b6127db6000848460000151612559565b6001600460008773ffffffffffffffffffffffffffffffffffffffff1673ffffffffffffffffffffffffffffffffffffffff16815260200190815260200160002060000160008282829054906101000a90046fffffffffffffffffffffffffffffffff160392506101000a8154816fffffffffffffffffffffffffffffffff02191690836fffffffffffffffffffffffffffffffff1602179055506001600460008673ffffffffffffffffffffffffffffffffffffffff1673ffffffffffffffffffffffffffffffffffffffff16815260200190815260200160002060000160008282829054906101000a90046fffffffffffffffffffffffffffffffff160192506101000a8154816fffffffffffffffffffffffffffffffff02191690836fffffffffffffffffffffffffffffffff160217905550836003600085815260200190815260200160002060000160006101000a81548173ffffffffffffffffffffffffffffffffffffffff021916908373ffffffffffffffffffffffffffffffffffffffff160217905550426003600085815260200190815260200160002060000160146101000a81548167ffffffffffffffff021916908367ffffffffffffffff1602179055506000600184019050600073ffffffffffffffffffffffffffffffffffffffff166003600083815260200190815260200160002060000160009054906101000a900473ffffffffffffffffffffffffffffffffffffffff1673ffffffffffffffffffffffffffffffffffffffff161415612ac057612a1f8161254c565b15612abf5782600001516003600083815260200190815260200160002060000160006101000a81548173ffffffffffffffffffffffffffffffffffffffff021916908373ffffffffffffffffffffffffffffffffffffffff16021790555082602001516003600083815260200190815260200160002060000160146101000a81548167ffffffffffffffff021916908367ffffffffffffffff1602179055505b5b50828473ffffffffffffffffffffffffffffffffffffffff168673ffffffffffffffffffffffffffffffffffffffff167fddf252ad1be2c89b69c2b068fc378daa952ba7f163c4a11628f55a4df523b3ef60405160405180910390a4612b2985858560016130f4565b5050505050565b600082612b3d85846130fa565b1490509392505050565b612b61828260405180602001604052806000815250613195565b5050565b612b6d6135ce565b612b768261254c565b612bac576040517fdf2d9b4200000000000000000000000000000000000000000000000000000000815260040160405180910390fd5b60008290505b60008110612cb5576000600360008381526020019081526020016000206040518060400160405290816000820160009054906101000a900473ffffffffffffffffffffffffffffffffffffffff1673ffffffffffffffffffffffffffffffffffffffff1673ffffffffffffffffffffffffffffffffffffffff1681526020016000820160149054906101000a900467ffffffffffffffff1667ffffffffffffffff1667ffffffffffffffff16815250509050600073ffffffffffffffffffffffffffffffffffffffff16816000015173ffffffffffffffffffffffffffffffffffffffff1614612ca6578092505050612ce8565b50808060019003915050612bb2565b506040517fe7c0edfb00000000000000000000000000000000000000000000000000000000815260040160405180910390fd5b919050565b6000600760009054906101000a900473ffffffffffffffffffffffffffffffffffffffff16905081600760006101000a81548173ffffffffffffffffffffffffffffffffffffffff021916908373ffffffffffffffffffffffffffffffffffffffff1602179055508173ffffffffffffffffffffffffffffffffffffffff168173ffffffffffffffffffffffffffffffffffffffff167f8be0079c531659141344cd1fd0a4f28419497f9722a3daafe3b4186f6b6457e060405160405180910390a35050565b6000612dd48473ffffffffffffffffffffffffffffffffffffffff166131a7565b15612f34578373ffffffffffffffffffffffffffffffffffffffff1663150b7a02612dfd612544565b8786866040518563ffffffff1660e01b8152600401612e1f9493929190613fd3565b602060405180830381600087803b158015612e3957600080fd5b505af1925050508015612e6a57506040513d601f19601f82011682018060405250810190612e679190613a56565b60015b612ee4573d8060008114612e9a576040519150601f19603f3d011682016040523d82523d6000602084013e612e9f565b606091505b50600081511415612edc576040517fd1a57ed600000000000000000000000000000000000000000000000000000000815260040160405180910390fd5b805181602001fd5b63150b7a0260e01b7bffffffffffffffffffffffffffffffffffffffffffffffffffffffff1916817bffffffffffffffffffffffffffffffffffffffffffffffffffffffff191614915050612f39565b600190505b949350505050565b60606000821415612f89576040518060400160405280600181526020017f300000000000000000000000000000000000000000000000000000000000000081525090506130e9565b600082905060005b60008214612fbb578080612fa49061463b565b915050600a82612fb49190614459565b9150612f91565b60008167ffffffffffffffff811115612ffd577f4e487b7100000000000000000000000000000000000000000000000000000000600052604160045260246000fd5b6040519080825280601f01601f19166020018201604052801561302f5781602001600182028036833780820191505090505b5090505b600085146130e25760018261304891906144e4565b9150600a8561305791906146a8565b60306130639190614403565b60f81b81838151811061309f577f4e487b7100000000000000000000000000000000000000000000000000000000600052603260045260246000fd5b60200101907effffffffffffffffffffffffffffffffffffffffffffffffffffffffffffff1916908160001a905350600a856130db9190614459565b9450613033565b8093505050505b919050565b50505050565b50505050565b60008082905060005b845181101561318a576000858281518110613147577f4e487b7100000000000000000000000000000000000000000000000000000000600052603260045260246000fd5b602002602001015190508083116131695761316283826131ca565b9250613176565b61317381846131ca565b92505b5080806131829061463b565b915050613103565b508091505092915050565b6131a283838360016131e1565b505050565b6000808273ffffffffffffffffffffffffffffffffffffffff163b119050919050565b600082600052816020526040600020905092915050565b600080549050600073ffffffffffffffffffffffffffffffffffffffff168573ffffffffffffffffffffffffffffffffffffffff16141561324e576040517f2e07630000000000000000000000000000000000000000000000000000000000815260040160405180910390fd5b6000841415613289576040517fb562e8dd00000000000000000000000000000000000000000000000000000000815260040160405180910390fd5b61329660008683876130ee565b83600460008773ffffffffffffffffffffffffffffffffffffffff1673ffffffffffffffffffffffffffffffffffffffff16815260200190815260200160002060000160008282829054906101000a90046fffffffffffffffffffffffffffffffff160192506101000a8154816fffffffffffffffffffffffffffffffff02191690836fffffffffffffffffffffffffffffffff16021790555083600460008773ffffffffffffffffffffffffffffffffffffffff1673ffffffffffffffffffffffffffffffffffffffff16815260200190815260200160002060000160108282829054906101000a90046fffffffffffffffffffffffffffffffff160192506101000a8154816fffffffffffffffffffffffffffffffff02191690836fffffffffffffffffffffffffffffffff160217905550846003600083815260200190815260200160002060000160006101000a81548173ffffffffffffffffffffffffffffffffffffffff021916908373ffffffffffffffffffffffffffffffffffffffff160217905550426003600083815260200190815260200160002060000160146101000a81548167ffffffffffffffff021916908367ffffffffffffffff160217905550600081905060005b8581101561352b57818773ffffffffffffffffffffffffffffffffffffffff16600073ffffffffffffffffffffffffffffffffffffffff167fddf252ad1be2c89b69c2b068fc378daa952ba7f163c4a11628f55a4df523b3ef60405160405180910390a48380156134df57506134dd6000888488612db3565b155b15613516576040517fd1a57ed600000000000000000000000000000000000000000000000000000000815260040160405180910390fd5b81806001019250508080600101915050613464565b50806000819055505061354160008683876130f4565b5050505050565b828054613554906145d8565b90600052602060002090601f01602090048101928261357657600085556135bd565b82601f1061358f57805160ff19168380011785556135bd565b828001600101855582156135bd579182015b828111156135bc5782518255916020019190600101906135a1565b5b5090506135ca9190613608565b5090565b6040518060400160405280600073ffffffffffffffffffffffffffffffffffffffff168152602001600067ffffffffffffffff1681525090565b5b80821115613621576000816000905550600101613609565b5090565b6000613638613633846142d9565b6142b4565b9050808382526020820190508285602086028201111561365757600080fd5b60005b85811015613687578161366d8882613761565b84526020840193506020830192505060018101905061365a565b5050509392505050565b60006136a461369f84614305565b6142b4565b9050828152602081018484840111156136bc57600080fd5b6136c7848285614596565b509392505050565b60006136e26136dd84614336565b6142b4565b9050828152602081018484840111156136fa57600080fd5b613705848285614596565b509392505050565b60008135905061371c81614b53565b92915050565b600082601f83011261373357600080fd5b8135613743848260208601613625565b91505092915050565b60008135905061375b81614b6a565b92915050565b60008135905061377081614b81565b92915050565b60008135905061378581614b98565b92915050565b60008151905061379a81614b98565b92915050565b600082601f8301126137b157600080fd5b81356137c1848260208601613691565b91505092915050565b600082601f8301126137db57600080fd5b81356137eb8482602086016136cf565b91505092915050565b60008135905061380381614baf565b92915050565b60006020828403121561381b57600080fd5b60006138298482850161370d565b91505092915050565b6000806040838503121561384557600080fd5b60006138538582860161370d565b92505060206138648582860161370d565b9150509250929050565b60008060006060848603121561388357600080fd5b60006138918682870161370d565b93505060206138a28682870161370d565b92505060406138b3868287016137f4565b9150509250925092565b600080600080608085870312156138d357600080fd5b60006138e18782880161370d565b94505060206138f28782880161370d565b9350506040613903878288016137f4565b925050606085013567ffffffffffffffff81111561392057600080fd5b61392c878288016137a0565b91505092959194509250565b6000806040838503121561394b57600080fd5b60006139598582860161370d565b925050602061396a8582860161374c565b9150509250929050565b6000806040838503121561398757600080fd5b60006139958582860161370d565b92505060206139a6858286016137f4565b9150509250929050565b600080604083850312156139c357600080fd5b600083013567ffffffffffffffff8111156139dd57600080fd5b6139e985828601613722565b92505060206139fa858286016137f4565b9150509250929050565b600060208284031215613a1657600080fd5b6000613a2484828501613761565b91505092915050565b600060208284031215613a3f57600080fd5b6000613a4d84828501613776565b91505092915050565b600060208284031215613a6857600080fd5b6000613a768482850161378b565b91505092915050565b600060208284031215613a9157600080fd5b600082013567ffffffffffffffff811115613aab57600080fd5b613ab7848285016137ca565b91505092915050565b600060208284031215613ad257600080fd5b6000613ae0848285016137f4565b91505092915050565b6000613af58383613f3b565b60208301905092915050565b613b0a81614518565b82525050565b613b21613b1c82614518565b614684565b82525050565b6000613b328261438c565b613b3c81856143ba565b9350613b4783614367565b8060005b83811015613b78578151613b5f8882613ae9565b9750613b6a836143ad565b925050600181019050613b4b565b5085935050505092915050565b613b8e8161452a565b82525050565b613b9d81614536565b82525050565b6000613bae82614397565b613bb881856143cb565b9350613bc88185602086016145a5565b613bd181614795565b840191505092915050565b6000613be7826143a2565b613bf181856143e7565b9350613c018185602086016145a5565b613c0a81614795565b840191505092915050565b6000613c20826143a2565b613c2a81856143f8565b9350613c3a8185602086016145a5565b80840191505092915050565b60008154613c53816145d8565b613c5d81866143f8565b94506001821660008114613c785760018114613c8957613cbc565b60ff19831686528186019350613cbc565b613c9285614377565b60005b83811015613cb457815481890152600182019150602081019050613c95565b838801955050505b50505092915050565b6000613cd26020836143e7565b9150613cdd826147b3565b602082019050919050565b6000613cf56027836143e7565b9150613d00826147dc565b604082019050919050565b6000613d186026836143e7565b9150613d238261482b565b604082019050919050565b6000613d3b6020836143e7565b9150613d468261487a565b602082019050919050565b6000613d5e6023836143e7565b9150613d69826148a3565b604082019050919050565b6000613d81602f836143e7565b9150613d8c826148f2565b604082019050919050565b6000613da4601c836143e7565b9150613daf82614941565b602082019050919050565b6000613dc7601c836143e7565b9150613dd28261496a565b602082019050919050565b6000613dea6026836143e7565b9150613df582614993565b604082019050919050565b6000613e0d6005836143f8565b9150613e18826149e2565b600582019050919050565b6000613e306020836143e7565b9150613e3b82614a0b565b602082019050919050565b6000613e53602f836143e7565b9150613e5e82614a34565b604082019050919050565b6000613e766016836143e7565b9150613e8182614a83565b602082019050919050565b6000613e996000836143dc565b9150613ea482614aac565b600082019050919050565b6000613ebc601a836143e7565b9150613ec782614aaf565b602082019050919050565b6000613edf601a836143e7565b9150613eea82614ad8565b602082019050919050565b6000613f02600f836143e7565b9150613f0d82614b01565b602082019050919050565b6000613f256018836143e7565b9150613f3082614b2a565b602082019050919050565b613f448161458c565b82525050565b613f538161458c565b82525050565b6000613f658284613b10565b60148201915081905092915050565b6000613f808285613c46565b9150613f8c8284613c15565b9150613f9782613e00565b91508190509392505050565b6000613fae82613e8c565b9150819050919050565b6000602082019050613fcd6000830184613b01565b92915050565b6000608082019050613fe86000830187613b01565b613ff56020830186613b01565b6140026040830185613f4a565b81810360608301526140148184613ba3565b905095945050505050565b600060208201905081810360008301526140398184613b27565b905092915050565b60006020820190506140566000830184613b85565b92915050565b60006020820190506140716000830184613b94565b92915050565b600060208201905081810360008301526140918184613bdc565b905092915050565b600060208201905081810360008301526140b281613cc5565b9050919050565b600060208201905081810360008301526140d281613ce8565b9050919050565b600060208201905081810360008301526140f281613d0b565b9050919050565b6000602082019050818103600083015261411281613d2e565b9050919050565b6000602082019050818103600083015261413281613d51565b9050919050565b6000602082019050818103600083015261415281613d74565b9050919050565b6000602082019050818103600083015261417281613d97565b9050919050565b6000602082019050818103600083015261419281613dba565b9050919050565b600060208201905081810360008301526141b281613ddd565b9050919050565b600060208201905081810360008301526141d281613e23565b9050919050565b600060208201905081810360008301526141f281613e46565b9050919050565b6000602082019050818103600083015261421281613e69565b9050919050565b6000602082019050818103600083015261423281613eaf565b9050919050565b6000602082019050818103600083015261425281613ed2565b9050919050565b6000602082019050818103600083015261427281613ef5565b9050919050565b6000602082019050818103600083015261429281613f18565b9050919050565b60006020820190506142ae6000830184613f4a565b92915050565b60006142be6142cf565b90506142ca828261460a565b919050565b6000604051905090565b600067ffffffffffffffff8211156142f4576142f3614766565b5b602082029050602081019050919050565b600067ffffffffffffffff8211156143205761431f614766565b5b61432982614795565b9050602081019050919050565b600067ffffffffffffffff82111561435157614350614766565b5b61435a82614795565b9050602081019050919050565b6000819050602082019050919050565b60008190508160005260206000209050919050565b600081519050919050565b600081519050919050565b600081519050919050565b6000602082019050919050565b600082825260208201905092915050565b600082825260208201905092915050565b600081905092915050565b600082825260208201905092915050565b600081905092915050565b600061440e8261458c565b91506144198361458c565b9250827fffffffffffffffffffffffffffffffffffffffffffffffffffffffffffffffff0382111561444e5761444d6146d9565b5b828201905092915050565b60006144648261458c565b915061446f8361458c565b92508261447f5761447e614708565b5b828204905092915050565b60006144958261458c565b91506144a08361458c565b9250817fffffffffffffffffffffffffffffffffffffffffffffffffffffffffffffffff04831182151516156144d9576144d86146d9565b5b828202905092915050565b60006144ef8261458c565b91506144fa8361458c565b92508282101561450d5761450c6146d9565b5b828203905092915050565b60006145238261456c565b9050919050565b60008115159050919050565b6000819050919050565b60007fffffffff0000000000000000000000000000000000000000000000000000000082169050919050565b600073ffffffffffffffffffffffffffffffffffffffff82169050919050565b6000819050919050565b82818337600083830152505050565b60005b838110156145c35780820151818401526020810190506145a8565b838111156145d2576000848401525b50505050565b600060028204905060018216806145f057607f821691505b6020821081141561460457614603614737565b5b50919050565b61461382614795565b810181811067ffffffffffffffff8211171561463257614631614766565b5b80604052505050565b60006146468261458c565b91507fffffffffffffffffffffffffffffffffffffffffffffffffffffffffffffffff821415614679576146786146d9565b5b600182019050919050565b600061468f82614696565b9050919050565b60006146a1826147a6565b9050919050565b60006146b38261458c565b91506146be8361458c565b9250826146ce576146cd614708565b5b828206905092915050565b7f4e487b7100000000000000000000000000000000000000000000000000000000600052601160045260246000fd5b7f4e487b7100000000000000000000000000000000000000000000000000000000600052601260045260246000fd5b7f4e487b7100000000000000000000000000000000000000000000000000000000600052602260045260246000fd5b7f4e487b7100000000000000000000000000000000000000000000000000000000600052604160045260246000fd5b6000601f19601f8301169050919050565b60008160601b9050919050565b7f416c706861203a3a20596f7520617265206e6f742077686974656c6973746564600082015250565b7f416c706861203a3a2043616e6e6f742062652063616c6c65642062792061206360008201527f6f6e747261637400000000000000000000000000000000000000000000000000602082015250565b7f4f776e61626c653a206e6577206f776e657220697320746865207a65726f206160008201527f6464726573730000000000000000000000000000000000000000000000000000602082015250565b7f416c706861203a3a20416c7265616479206d696e74656420332074696d657321600082015250565b7f416c706861203a3a205061796d656e742069732062656c6f772074686520707260008201527f6963650000000000000000000000000000000000000000000000000000000000602082015250565b7f416c706861203a3a2043616e6e6f74206d696e74206265796f6e64207768697460008201527f656c697374206d6178206d696e74210000000000000000000000000000000000602082015250565b7f416c706861203a3a205465616d20616c7265616479206d696e74656400000000600082015250565b7f416c706861203a3a204d696e74696e67206973206f6e20506175736500000000600082015250565b7f416c706861203a3a2043616e6e6f74206d696e74206265796f6e64206d61782060008201527f737570706c790000000000000000000000000000000000000000000000000000602082015250565b7f2e6a736f6e000000000000000000000000000000000000000000000000000000600082015250565b7f4f776e61626c653a2063616c6c6572206973206e6f7420746865206f776e6572600082015250565b7f4552433732314d657461646174613a2055524920717565727920666f72206e6f60008201527f6e6578697374656e7420746f6b656e0000000000000000000000000000000000602082015250565b7f4e6f2062616c616e636520746f20776974686472617700000000000000000000600082015250565b50565b7f416c706861203a3a204265796f6e64204d617820537570706c79000000000000600082015250565b7f4661696c656420746f207769746864726177207061796d656e74000000000000600082015250565b7f416c706861203a3a2042656c6f77200000000000000000000000000000000000600082015250565b7f416c706861203a3a204e6f7420596574204163746976652e0000000000000000600082015250565b614b5c81614518565b8114614b6757600080fd5b50565b614b738161452a565b8114614b7e57600080fd5b50565b614b8a81614536565b8114614b9557600080fd5b50565b614ba181614540565b8114614bac57600080fd5b50565b614bb88161458c565b8114614bc357600080fd5b5056fea26469706673582212201ded78bd572848969ef8ec7115a34b69632de51cf0e31a758bba4838cd6cb17364736f6c63430008040033",
  "linkReferences": {},
  "deployedLinkReferences": {}
}