{
  "_format": "hh-sol-artifact-1",
  "contractName": "Buildings",
  "sourceName": "contracts/Buildings.sol",
  "abi": [
    {
      "inputs": [],
      "stateMutability": "nonpayable",
      "type": "constructor"
    },
    {
      "inputs": [],
      "name": "ApprovalCallerNotOwnerNorApproved",
      "type": "error"
    },
    {
      "inputs": [],
      "name": "ApprovalQueryForNonexistentToken",
      "type": "error"
    },
    {
      "inputs": [],
      "name": "ApprovalToCurrentOwner",
      "type": "error"
    },
    {
      "inputs": [],
      "name": "ApproveToCaller",
      "type": "error"
    },
    {
      "inputs": [],
      "name": "BalanceQueryForZeroAddress",
      "type": "error"
    },
    {
      "inputs": [],
      "name": "MintToZeroAddress",
      "type": "error"
    },
    {
      "inputs": [],
      "name": "MintZeroQuantity",
      "type": "error"
    },
    {
      "inputs": [],
      "name": "OwnerIndexOutOfBounds",
      "type": "error"
    },
    {
      "inputs": [],
      "name": "OwnerQueryForNonexistentToken",
      "type": "error"
    },
    {
      "inputs": [],
      "name": "TokenIndexOutOfBounds",
      "type": "error"
    },
    {
      "inputs": [],
      "name": "TransferCallerNotOwnerNorApproved",
      "type": "error"
    },
    {
      "inputs": [],
      "name": "TransferFromIncorrectOwner",
      "type": "error"
    },
    {
      "inputs": [],
      "name": "TransferToNonERC721ReceiverImplementer",
      "type": "error"
    },
    {
      "inputs": [],
      "name": "TransferToZeroAddress",
      "type": "error"
    },
    {
      "inputs": [],
      "name": "UnableDetermineTokenOwner",
      "type": "error"
    },
    {
      "anonymous": false,
      "inputs": [
        {
          "indexed": true,
          "internalType": "address",
          "name": "owner",
          "type": "address"
        },
        {
          "indexed": true,
          "internalType": "address",
          "name": "approved",
          "type": "address"
        },
        {
          "indexed": true,
          "internalType": "uint256",
          "name": "tokenId",
          "type": "uint256"
        }
      ],
      "name": "Approval",
      "type": "event"
    },
    {
      "anonymous": false,
      "inputs": [
        {
          "indexed": true,
          "internalType": "address",
          "name": "owner",
          "type": "address"
        },
        {
          "indexed": true,
          "internalType": "address",
          "name": "operator",
          "type": "address"
        },
        {
          "indexed": false,
          "internalType": "bool",
          "name": "approved",
          "type": "bool"
        }
      ],
      "name": "ApprovalForAll",
      "type": "event"
    },
    {
      "anonymous": false,
      "inputs": [
        {
          "indexed": true,
          "internalType": "address",
          "name": "previousOwner",
          "type": "address"
        },
        {
          "indexed": true,
          "internalType": "address",
          "name": "newOwner",
          "type": "address"
        }
      ],
      "name": "OwnershipTransferred",
      "type": "event"
    },
    {
      "anonymous": false,
      "inputs": [
        {
          "indexed": true,
          "internalType": "address",
          "name": "from",
          "type": "address"
        },
        {
          "indexed": true,
          "internalType": "address",
          "name": "to",
          "type": "address"
        },
        {
          "indexed": true,
          "internalType": "uint256",
          "name": "tokenId",
          "type": "uint256"
        }
      ],
      "name": "Transfer",
      "type": "event"
    },
    {
      "inputs": [],
      "name": "MAX_MINT",
      "outputs": [
        {
          "internalType": "uint256",
          "name": "",
          "type": "uint256"
        }
      ],
      "stateMutability": "view",
      "type": "function"
    },
    {
      "inputs": [],
      "name": "MAX_SUPPLY",
      "outputs": [
        {
          "internalType": "uint256",
          "name": "",
          "type": "uint256"
        }
      ],
      "stateMutability": "view",
      "type": "function"
    },
    {
      "inputs": [
        {
          "internalType": "uint256",
          "name": "_quantity",
          "type": "uint256"
        }
      ],
      "name": "OwnerMint",
      "outputs": [],
      "stateMutability": "payable",
      "type": "function"
    },
    {
      "inputs": [],
      "name": "SALE_PRICE",
      "outputs": [
        {
          "internalType": "uint256",
          "name": "",
          "type": "uint256"
        }
      ],
      "stateMutability": "view",
      "type": "function"
    },
    {
      "inputs": [
        {
          "internalType": "address",
          "name": "to",
          "type": "address"
        },
        {
          "internalType": "uint256",
          "name": "tokenId",
          "type": "uint256"
        }
      ],
      "name": "approve",
      "outputs": [],
      "stateMutability": "nonpayable",
      "type": "function"
    },
    {
      "inputs": [
        {
          "internalType": "address",
          "name": "owner",
          "type": "address"
        }
      ],
      "name": "balanceOf",
      "outputs": [
        {
          "internalType": "uint256",
          "name": "",
          "type": "uint256"
        }
      ],
      "stateMutability": "view",
      "type": "function"
    },
    {
      "inputs": [
        {
          "internalType": "uint256",
          "name": "tokenId",
          "type": "uint256"
        }
      ],
      "name": "getApproved",
      "outputs": [
        {
          "internalType": "address",
          "name": "",
          "type": "address"
        }
      ],
      "stateMutability": "view",
      "type": "function"
    },
    {
      "inputs": [
        {
          "internalType": "address",
          "name": "owner",
          "type": "address"
        },
        {
          "internalType": "address",
          "name": "operator",
          "type": "address"
        }
      ],
      "name": "isApprovedForAll",
      "outputs": [
        {
          "internalType": "bool",
          "name": "",
          "type": "bool"
        }
      ],
      "stateMutability": "view",
      "type": "function"
    },
    {
      "inputs": [],
      "name": "isGameStarted",
      "outputs": [
        {
          "internalType": "bool",
          "name": "",
          "type": "bool"
        }
      ],
      "stateMutability": "view",
      "type": "function"
    },
    {
      "inputs": [],
      "name": "isRevealed",
      "outputs": [
        {
          "internalType": "bool",
          "name": "",
          "type": "bool"
        }
      ],
      "stateMutability": "view",
      "type": "function"
    },
    {
      "inputs": [],
      "name": "name",
      "outputs": [
        {
          "internalType": "string",
          "name": "",
          "type": "string"
        }
      ],
      "stateMutability": "view",
      "type": "function"
    },
    {
      "inputs": [],
      "name": "owner",
      "outputs": [
        {
          "internalType": "address",
          "name": "",
          "type": "address"
        }
      ],
      "stateMutability": "view",
      "type": "function"
    },
    {
      "inputs": [
        {
          "internalType": "uint256",
          "name": "tokenId",
          "type": "uint256"
        }
      ],
      "name": "ownerOf",
      "outputs": [
        {
          "internalType": "address",
          "name": "",
          "type": "address"
        }
      ],
      "stateMutability": "view",
      "type": "function"
    },
    {
      "inputs": [],
      "name": "pause",
      "outputs": [
        {
          "internalType": "bool",
          "name": "",
          "type": "bool"
        }
      ],
      "stateMutability": "view",
      "type": "function"
    },
    {
      "inputs": [],
      "name": "renounceOwnership",
      "outputs": [],
      "stateMutability": "nonpayable",
      "type": "function"
    },
    {
      "inputs": [
        {
          "internalType": "address",
          "name": "from",
          "type": "address"
        },
        {
          "internalType": "address",
          "name": "to",
          "type": "address"
        },
        {
          "internalType": "uint256",
          "name": "tokenId",
          "type": "uint256"
        }
      ],
      "name": "safeTransferFrom",
      "outputs": [],
      "stateMutability": "nonpayable",
      "type": "function"
    },
    {
      "inputs": [
        {
          "internalType": "address",
          "name": "from",
          "type": "address"
        },
        {
          "internalType": "address",
          "name": "to",
          "type": "address"
        },
        {
          "internalType": "uint256",
          "name": "tokenId",
          "type": "uint256"
        },
        {
          "internalType": "bytes",
          "name": "_data",
          "type": "bytes"
        }
      ],
      "name": "safeTransferFrom",
      "outputs": [],
      "stateMutability": "nonpayable",
      "type": "function"
    },
    {
      "inputs": [
        {
          "internalType": "address",
          "name": "operator",
          "type": "address"
        },
        {
          "internalType": "bool",
          "name": "approved",
          "type": "bool"
        }
      ],
      "name": "setApprovalForAll",
      "outputs": [],
      "stateMutability": "nonpayable",
      "type": "function"
    },
    {
      "inputs": [
        {
          "internalType": "string",
          "name": "_baseTokenUri",
          "type": "string"
        }
      ],
      "name": "setTokenUri",
      "outputs": [],
      "stateMutability": "nonpayable",
      "type": "function"
    },
    {
      "inputs": [
        {
          "internalType": "bytes4",
          "name": "interfaceId",
          "type": "bytes4"
        }
      ],
      "name": "supportsInterface",
      "outputs": [
        {
          "internalType": "bool",
          "name": "",
          "type": "bool"
        }
      ],
      "stateMutability": "view",
      "type": "function"
    },
    {
      "inputs": [],
      "name": "symbol",
      "outputs": [
        {
          "internalType": "string",
          "name": "",
          "type": "string"
        }
      ],
      "stateMutability": "view",
      "type": "function"
    },
    {
      "inputs": [],
      "name": "toggleGame",
      "outputs": [],
      "stateMutability": "nonpayable",
      "type": "function"
    },
    {
      "inputs": [],
      "name": "togglePause",
      "outputs": [],
      "stateMutability": "nonpayable",
      "type": "function"
    },
    {
      "inputs": [],
      "name": "toggleReveal",
      "outputs": [],
      "stateMutability": "nonpayable",
      "type": "function"
    },
    {
      "inputs": [
        {
          "internalType": "uint256",
          "name": "index",
          "type": "uint256"
        }
      ],
      "name": "tokenByIndex",
      "outputs": [
        {
          "internalType": "uint256",
          "name": "",
          "type": "uint256"
        }
      ],
      "stateMutability": "view",
      "type": "function"
    },
    {
      "inputs": [
        {
          "internalType": "address",
          "name": "owner",
          "type": "address"
        },
        {
          "internalType": "uint256",
          "name": "index",
          "type": "uint256"
        }
      ],
      "name": "tokenOfOwnerByIndex",
      "outputs": [
        {
          "internalType": "uint256",
          "name": "",
          "type": "uint256"
        }
      ],
      "stateMutability": "view",
      "type": "function"
    },
    {
      "inputs": [
        {
          "internalType": "uint256",
          "name": "tokenId",
          "type": "uint256"
        }
      ],
      "name": "tokenURI",
      "outputs": [
        {
          "internalType": "string",
          "name": "",
          "type": "string"
        }
      ],
      "stateMutability": "view",
      "type": "function"
    },
    {
      "inputs": [
        {
          "internalType": "address",
          "name": "",
          "type": "address"
        }
      ],
      "name": "totalOwnerMint",
      "outputs": [
        {
          "internalType": "uint256",
          "name": "",
          "type": "uint256"
        }
      ],
      "stateMutability": "view",
      "type": "function"
    },
    {
      "inputs": [],
      "name": "totalSupply",
      "outputs": [
        {
          "internalType": "uint256",
          "name": "",
          "type": "uint256"
        }
      ],
      "stateMutability": "view",
      "type": "function"
    },
    {
      "inputs": [
        {
          "internalType": "address",
          "name": "from",
          "type": "address"
        },
        {
          "internalType": "address",
          "name": "to",
          "type": "address"
        },
        {
          "internalType": "uint256",
          "name": "tokenId",
          "type": "uint256"
        }
      ],
      "name": "transferFrom",
      "outputs": [],
      "stateMutability": "nonpayable",
      "type": "function"
    },
    {
      "inputs": [
        {
          "internalType": "address",
          "name": "newOwner",
          "type": "address"
        }
      ],
      "name": "transferOwnership",
      "outputs": [],
      "stateMutability": "nonpayable",
      "type": "function"
    },
    {
      "inputs": [],
      "name": "walletOf",
      "outputs": [
        {
          "internalType": "uint256[]",
          "name": "",
          "type": "uint256[]"
        }
      ],
      "stateMutability": "view",
      "type": "function"
    },
    {
      "inputs": [],
      "name": "withdraw",
      "outputs": [],
      "stateMutability": "nonpayable",
      "type": "function"
    }
  ],
  "bytecode": "0x60806040523480156200001157600080fd5b506040518060400160405280601381526020017f4c616e644c6f726473204275696c64696e6773000000000000000000000000008152506040518060400160405280600381526020017f4c4c420000000000000000000000000000000000000000000000000000000000815250816001908051906020019062000096929190620001a6565b508060029080519060200190620000af929190620001a6565b505050620000d2620000c6620000d860201b60201c565b620000e060201b60201c565b620002bb565b600033905090565b6000600760009054906101000a900473ffffffffffffffffffffffffffffffffffffffff16905081600760006101000a81548173ffffffffffffffffffffffffffffffffffffffff021916908373ffffffffffffffffffffffffffffffffffffffff1602179055508173ffffffffffffffffffffffffffffffffffffffff168173ffffffffffffffffffffffffffffffffffffffff167f8be0079c531659141344cd1fd0a4f28419497f9722a3daafe3b4186f6b6457e060405160405180910390a35050565b828054620001b49062000256565b90600052602060002090601f016020900481019282620001d8576000855562000224565b82601f10620001f357805160ff191683800117855562000224565b8280016001018555821562000224579182015b828111156200022357825182559160200191906001019062000206565b5b50905062000233919062000237565b5090565b5b808211156200025257600081600090555060010162000238565b5090565b600060028204905060018216806200026f57607f821691505b602082108114156200028657620002856200028c565b5b50919050565b7f4e487b7100000000000000000000000000000000000000000000000000000000600052602260045260246000fd5b613c9f80620002cb6000396000f3fe6080604052600436106101ee5760003560e01c806370a082311161010d578063a22cb465116100a0578063c4ae31681161006f578063c4ae3168146106ba578063c87b56dd146106d1578063e985e9c51461070e578063f0292a031461074b578063f2fde38b14610776576101ee565b8063a22cb46514610600578063b88d4fde14610629578063c199dc4c14610652578063c315432a1461068f576101ee565b806383a974a2116100dc57806383a974a2146105545780638456cb591461057f5780638da5cb5b146105aa57806395d89b41146105d5576101ee565b806370a08231146104be578063715018a6146104fb5780637f205a74146105125780637fd60e421461053d576101ee565b80632f745c59116101855780634f6ccce7116101545780634f6ccce71461040257806354214f691461043f5780635b8ad4291461046a5780636352211e14610481576101ee565b80632f745c591461035a57806332cb6b0c146103975780633ccfd60b146103c257806342842e0e146103d9576101ee565b8063095ea7b3116101c1578063095ea7b3146102c15780631618c8df146102ea57806318160ddd1461030657806323b872dd14610331576101ee565b806301ffc9a7146101f35780630675b7c61461023057806306fdde0314610259578063081812fc14610284575b600080fd5b3480156101ff57600080fd5b5061021a60048036038101906102159190612eca565b61079f565b60405161022791906133cb565b60405180910390f35b34801561023c57600080fd5b5061025760048036038101906102529190612f1c565b6108e9565b005b34801561026557600080fd5b5061026e61097f565b60405161027b91906133e6565b60405180910390f35b34801561029057600080fd5b506102ab60048036038101906102a69190612f5d565b610a11565b6040516102b89190613342565b60405180910390f35b3480156102cd57600080fd5b506102e860048036038101906102e39190612e8e565b610a8d565b005b61030460048036038101906102ff9190612f5d565b610b98565b005b34801561031257600080fd5b5061031b610df3565b6040516103289190613548565b60405180910390f35b34801561033d57600080fd5b5061035860048036038101906103539190612d88565b610dfc565b005b34801561036657600080fd5b50610381600480360381019061037c9190612e8e565b610e0c565b60405161038e9190613548565b60405180910390f35b3480156103a357600080fd5b506103ac610ff3565b6040516103b99190613548565b60405180910390f35b3480156103ce57600080fd5b506103d7610ffa565b005b3480156103e557600080fd5b5061040060048036038101906103fb9190612d88565b61116e565b005b34801561040e57600080fd5b5061042960048036038101906104249190612f5d565b61118e565b6040516104369190613548565b60405180910390f35b34801561044b57600080fd5b506104546111d8565b60405161046191906133cb565b60405180910390f35b34801561047657600080fd5b5061047f6111eb565b005b34801561048d57600080fd5b506104a860048036038101906104a39190612f5d565b611293565b6040516104b59190613342565b60405180910390f35b3480156104ca57600080fd5b506104e560048036038101906104e09190612d23565b6112a9565b6040516104f29190613548565b60405180910390f35b34801561050757600080fd5b50610510611389565b005b34801561051e57600080fd5b50610527611411565b6040516105349190613548565b60405180910390f35b34801561054957600080fd5b5061055261141c565b005b34801561056057600080fd5b506105696114c4565b60405161057691906133a9565b60405180910390f35b34801561058b57600080fd5b506105946115c2565b6040516105a191906133cb565b60405180910390f35b3480156105b657600080fd5b506105bf6115d5565b6040516105cc9190613342565b60405180910390f35b3480156105e157600080fd5b506105ea6115ff565b6040516105f791906133e6565b60405180910390f35b34801561060c57600080fd5b5061062760048036038101906106229190612e52565b611691565b005b34801561063557600080fd5b50610650600480360381019061064b9190612dd7565b611809565b005b34801561065e57600080fd5b5061067960048036038101906106749190612d23565b61185c565b6040516106869190613548565b60405180910390f35b34801561069b57600080fd5b506106a4611874565b6040516106b191906133cb565b60405180910390f35b3480156106c657600080fd5b506106cf611887565b005b3480156106dd57600080fd5b506106f860048036038101906106f39190612f5d565b61192f565b60405161070591906133e6565b60405180910390f35b34801561071a57600080fd5b5061073560048036038101906107309190612d4c565b6119d7565b60405161074291906133cb565b60405180910390f35b34801561075757600080fd5b50610760611a6b565b60405161076d9190613548565b60405180910390f35b34801561078257600080fd5b5061079d60048036038101906107989190612d23565b611a70565b005b60007f80ac58cd000000000000000000000000000000000000000000000000000000007bffffffffffffffffffffffffffffffffffffffffffffffffffffffff1916827bffffffffffffffffffffffffffffffffffffffffffffffffffffffff1916148061086a57507f5b5e139f000000000000000000000000000000000000000000000000000000007bffffffffffffffffffffffffffffffffffffffffffffffffffffffff1916827bffffffffffffffffffffffffffffffffffffffffffffffffffffffff1916145b806108d257507f780e9d63000000000000000000000000000000000000000000000000000000007bffffffffffffffffffffffffffffffffffffffffffffffffffffffff1916827bffffffffffffffffffffffffffffffffffffffffffffffffffffffff1916145b806108e257506108e182611b68565b5b9050919050565b6108f1611bd2565b73ffffffffffffffffffffffffffffffffffffffff1661090f6115d5565b73ffffffffffffffffffffffffffffffffffffffff1614610965576040517f08c379a000000000000000000000000000000000000000000000000000000000815260040161095c90613468565b60405180910390fd5b806008908051906020019061097b929190612b0d565b5050565b60606001805461098e90613851565b80601f01602080910402602001604051908101604052809291908181526020018280546109ba90613851565b8015610a075780601f106109dc57610100808354040283529160200191610a07565b820191906000526020600020905b8154815290600101906020018083116109ea57829003601f168201915b5050505050905090565b6000610a1c82611bda565b610a52576040517fcf4700e400000000000000000000000000000000000000000000000000000000815260040160405180910390fd5b6005600083815260200190815260200160002060009054906101000a900473ffffffffffffffffffffffffffffffffffffffff169050919050565b6000610a9882611293565b90508073ffffffffffffffffffffffffffffffffffffffff168373ffffffffffffffffffffffffffffffffffffffff161415610b00576040517f943f7b8c00000000000000000000000000000000000000000000000000000000815260040160405180910390fd5b8073ffffffffffffffffffffffffffffffffffffffff16610b1f611bd2565b73ffffffffffffffffffffffffffffffffffffffff1614158015610b515750610b4f81610b4a611bd2565b6119d7565b155b15610b88576040517fcfb3b94200000000000000000000000000000000000000000000000000000000815260040160405180910390fd5b610b93838383611be7565b505050565b3373ffffffffffffffffffffffffffffffffffffffff163273ffffffffffffffffffffffffffffffffffffffff1614610c06576040517f08c379a0000000000000000000000000000000000000000000000000000000008152600401610bfd906134e8565b60405180910390fd5b600960019054906101000a900460ff16610c55576040517f08c379a0000000000000000000000000000000000000000000000000000000008152600401610c4c90613448565b60405180910390fd5b620186a081610c62610df3565b610c6c9190613686565b1115610cad576040517f08c379a0000000000000000000000000000000000000000000000000000000008152600401610ca4906134c8565b60405180910390fd5b600181600a60003373ffffffffffffffffffffffffffffffffffffffff1673ffffffffffffffffffffffffffffffffffffffff16815260200190815260200160002054610cfa9190613686565b1115610d3b576040517f08c379a0000000000000000000000000000000000000000000000000000000008152600401610d3290613528565b60405180910390fd5b8066b1a2bc2ec50000610d4e919061370d565b341015610d90576040517f08c379a0000000000000000000000000000000000000000000000000000000008152600401610d8790613408565b60405180910390fd5b80600a60003373ffffffffffffffffffffffffffffffffffffffff1673ffffffffffffffffffffffffffffffffffffffff1681526020019081526020016000206000828254610ddf9190613686565b92505081905550610df03382611c99565b50565b60008054905090565b610e07838383611cb7565b505050565b6000610e17836112a9565b8210610e4f576040517f0ddac30e00000000000000000000000000000000000000000000000000000000815260040160405180910390fd5b6000610e59610df3565b905060008060005b83811015610fb3576000600360008381526020019081526020016000206040518060400160405290816000820160009054906101000a900473ffffffffffffffffffffffffffffffffffffffff1673ffffffffffffffffffffffffffffffffffffffff1673ffffffffffffffffffffffffffffffffffffffff1681526020016000820160149054906101000a900467ffffffffffffffff1667ffffffffffffffff1667ffffffffffffffff16815250509050600073ffffffffffffffffffffffffffffffffffffffff16816000015173ffffffffffffffffffffffffffffffffffffffff1614610f5357806000015192505b8773ffffffffffffffffffffffffffffffffffffffff168373ffffffffffffffffffffffffffffffffffffffff161415610fa55786841415610f9c578195505050505050610fed565b83806001019450505b508080600101915050610e61565b506000610fe9577f4e487b7100000000000000000000000000000000000000000000000000000000600052600160045260246000fd5b5050505b92915050565b620186a081565b611002611bd2565b73ffffffffffffffffffffffffffffffffffffffff166110206115d5565b73ffffffffffffffffffffffffffffffffffffffff1614611076576040517f08c379a000000000000000000000000000000000000000000000000000000000815260040161106d90613468565b60405180910390fd5b6000479050600081116110be576040517f08c379a00000000000000000000000000000000000000000000000000000000081526004016110b5906134a8565b60405180910390fd5b60003373ffffffffffffffffffffffffffffffffffffffff16826040516110e49061332d565b60006040518083038185875af1925050503d8060008114611121576040519150601f19603f3d011682016040523d82523d6000602084013e611126565b606091505b505090508061116a576040517f08c379a000000000000000000000000000000000000000000000000000000000815260040161116190613508565b60405180910390fd5b5050565b61118983838360405180602001604052806000815250611809565b505050565b6000611198610df3565b82106111d0576040517fa723001c00000000000000000000000000000000000000000000000000000000815260040160405180910390fd5b819050919050565b600960009054906101000a900460ff1681565b6111f3611bd2565b73ffffffffffffffffffffffffffffffffffffffff166112116115d5565b73ffffffffffffffffffffffffffffffffffffffff1614611267576040517f08c379a000000000000000000000000000000000000000000000000000000000815260040161125e90613468565b60405180910390fd5b600960009054906101000a900460ff1615600960006101000a81548160ff021916908315150217905550565b600061129e826121dc565b600001519050919050565b60008073ffffffffffffffffffffffffffffffffffffffff168273ffffffffffffffffffffffffffffffffffffffff161415611311576040517f8f4eb60400000000000000000000000000000000000000000000000000000000815260040160405180910390fd5b600460008373ffffffffffffffffffffffffffffffffffffffff1673ffffffffffffffffffffffffffffffffffffffff16815260200190815260200160002060000160009054906101000a90046fffffffffffffffffffffffffffffffff166fffffffffffffffffffffffffffffffff169050919050565b611391611bd2565b73ffffffffffffffffffffffffffffffffffffffff166113af6115d5565b73ffffffffffffffffffffffffffffffffffffffff1614611405576040517f08c379a00000000000000000000000000000000000000000000000000000000081526004016113fc90613468565b60405180910390fd5b61140f6000612364565b565b66b1a2bc2ec5000081565b611424611bd2565b73ffffffffffffffffffffffffffffffffffffffff166114426115d5565b73ffffffffffffffffffffffffffffffffffffffff1614611498576040517f08c379a000000000000000000000000000000000000000000000000000000000815260040161148f90613468565b60405180910390fd5b600960019054906101000a900460ff1615600960016101000a81548160ff021916908315150217905550565b6060600033905060006114d6826112a9565b905060008167ffffffffffffffff81111561151a577f4e487b7100000000000000000000000000000000000000000000000000000000600052604160045260246000fd5b6040519080825280602002602001820160405280156115485781602001602082028036833780820191505090505b50905060005b828110156115b8576115608482610e0c565b828281518110611599577f4e487b7100000000000000000000000000000000000000000000000000000000600052603260045260246000fd5b60200260200101818152505080806115b0906138b4565b91505061154e565b5080935050505090565b600960029054906101000a900460ff1681565b6000600760009054906101000a900473ffffffffffffffffffffffffffffffffffffffff16905090565b60606002805461160e90613851565b80601f016020809104026020016040519081016040528092919081815260200182805461163a90613851565b80156116875780601f1061165c57610100808354040283529160200191611687565b820191906000526020600020905b81548152906001019060200180831161166a57829003601f168201915b5050505050905090565b611699611bd2565b73ffffffffffffffffffffffffffffffffffffffff168273ffffffffffffffffffffffffffffffffffffffff1614156116fe576040517fb06307db00000000000000000000000000000000000000000000000000000000815260040160405180910390fd5b806006600061170b611bd2565b73ffffffffffffffffffffffffffffffffffffffff1673ffffffffffffffffffffffffffffffffffffffff16815260200190815260200160002060008473ffffffffffffffffffffffffffffffffffffffff1673ffffffffffffffffffffffffffffffffffffffff16815260200190815260200160002060006101000a81548160ff0219169083151502179055508173ffffffffffffffffffffffffffffffffffffffff166117b8611bd2565b73ffffffffffffffffffffffffffffffffffffffff167f17307eab39ab6107e8899845ad3d59bd9653f200f220920489ca2b5937696c31836040516117fd91906133cb565b60405180910390a35050565b611814848484611cb7565b6118208484848461242a565b611856576040517fd1a57ed600000000000000000000000000000000000000000000000000000000815260040160405180910390fd5b50505050565b600a6020528060005260406000206000915090505481565b600960019054906101000a900460ff1681565b61188f611bd2565b73ffffffffffffffffffffffffffffffffffffffff166118ad6115d5565b73ffffffffffffffffffffffffffffffffffffffff1614611903576040517f08c379a00000000000000000000000000000000000000000000000000000000081526004016118fa90613468565b60405180910390fd5b600960029054906101000a900460ff1615600960026101000a81548160ff021916908315150217905550565b606061193a82611bda565b611979576040517f08c379a000000000000000000000000000000000000000000000000000000000815260040161197090613488565b60405180910390fd5b60006008805461198890613851565b9050116119a457604051806020016040528060008152506119d0565b60086119af836125b8565b6040516020016119c09291906132fe565b6040516020818303038152906040525b9050919050565b6000600660008473ffffffffffffffffffffffffffffffffffffffff1673ffffffffffffffffffffffffffffffffffffffff16815260200190815260200160002060008373ffffffffffffffffffffffffffffffffffffffff1673ffffffffffffffffffffffffffffffffffffffff16815260200190815260200160002060009054906101000a900460ff16905092915050565b600181565b611a78611bd2565b73ffffffffffffffffffffffffffffffffffffffff16611a966115d5565b73ffffffffffffffffffffffffffffffffffffffff1614611aec576040517f08c379a0000000000000000000000000000000000000000000000000000000008152600401611ae390613468565b60405180910390fd5b600073ffffffffffffffffffffffffffffffffffffffff168173ffffffffffffffffffffffffffffffffffffffff161415611b5c576040517f08c379a0000000000000000000000000000000000000000000000000000000008152600401611b5390613428565b60405180910390fd5b611b6581612364565b50565b60007f01ffc9a7000000000000000000000000000000000000000000000000000000007bffffffffffffffffffffffffffffffffffffffffffffffffffffffff1916827bffffffffffffffffffffffffffffffffffffffffffffffffffffffff1916149050919050565b600033905090565b6000805482109050919050565b826005600084815260200190815260200160002060006101000a81548173ffffffffffffffffffffffffffffffffffffffff021916908373ffffffffffffffffffffffffffffffffffffffff160217905550818373ffffffffffffffffffffffffffffffffffffffff168273ffffffffffffffffffffffffffffffffffffffff167f8c5be1e5ebec7d5bd14f71427d1e84f3dd0314c0f7b2291e5b200ac8c7c3b92560405160405180910390a4505050565b611cb3828260405180602001604052806000815250612765565b5050565b6000611cc2826121dc565b90506000816000015173ffffffffffffffffffffffffffffffffffffffff16611ce9611bd2565b73ffffffffffffffffffffffffffffffffffffffff161480611d455750611d0e611bd2565b73ffffffffffffffffffffffffffffffffffffffff16611d2d84610a11565b73ffffffffffffffffffffffffffffffffffffffff16145b80611d615750611d608260000151611d5b611bd2565b6119d7565b5b905080611d9a576040517f59c896be00000000000000000000000000000000000000000000000000000000815260040160405180910390fd5b8473ffffffffffffffffffffffffffffffffffffffff16826000015173ffffffffffffffffffffffffffffffffffffffff1614611e03576040517fa114810000000000000000000000000000000000000000000000000000000000815260040160405180910390fd5b600073ffffffffffffffffffffffffffffffffffffffff168473ffffffffffffffffffffffffffffffffffffffff161415611e6a576040517fea553b3400000000000000000000000000000000000000000000000000000000815260040160405180910390fd5b611e778585856001612777565b611e876000848460000151611be7565b6001600460008773ffffffffffffffffffffffffffffffffffffffff1673ffffffffffffffffffffffffffffffffffffffff16815260200190815260200160002060000160008282829054906101000a90046fffffffffffffffffffffffffffffffff160392506101000a8154816fffffffffffffffffffffffffffffffff02191690836fffffffffffffffffffffffffffffffff1602179055506001600460008673ffffffffffffffffffffffffffffffffffffffff1673ffffffffffffffffffffffffffffffffffffffff16815260200190815260200160002060000160008282829054906101000a90046fffffffffffffffffffffffffffffffff160192506101000a8154816fffffffffffffffffffffffffffffffff02191690836fffffffffffffffffffffffffffffffff160217905550836003600085815260200190815260200160002060000160006101000a81548173ffffffffffffffffffffffffffffffffffffffff021916908373ffffffffffffffffffffffffffffffffffffffff160217905550426003600085815260200190815260200160002060000160146101000a81548167ffffffffffffffff021916908367ffffffffffffffff1602179055506000600184019050600073ffffffffffffffffffffffffffffffffffffffff166003600083815260200190815260200160002060000160009054906101000a900473ffffffffffffffffffffffffffffffffffffffff1673ffffffffffffffffffffffffffffffffffffffff16141561216c576120cb81611bda565b1561216b5782600001516003600083815260200190815260200160002060000160006101000a81548173ffffffffffffffffffffffffffffffffffffffff021916908373ffffffffffffffffffffffffffffffffffffffff16021790555082602001516003600083815260200190815260200160002060000160146101000a81548167ffffffffffffffff021916908367ffffffffffffffff1602179055505b5b50828473ffffffffffffffffffffffffffffffffffffffff168673ffffffffffffffffffffffffffffffffffffffff167fddf252ad1be2c89b69c2b068fc378daa952ba7f163c4a11628f55a4df523b3ef60405160405180910390a46121d5858585600161277d565b5050505050565b6121e4612b93565b6121ed82611bda565b612223576040517fdf2d9b4200000000000000000000000000000000000000000000000000000000815260040160405180910390fd5b60008290505b6000811061232c576000600360008381526020019081526020016000206040518060400160405290816000820160009054906101000a900473ffffffffffffffffffffffffffffffffffffffff1673ffffffffffffffffffffffffffffffffffffffff1673ffffffffffffffffffffffffffffffffffffffff1681526020016000820160149054906101000a900467ffffffffffffffff1667ffffffffffffffff1667ffffffffffffffff16815250509050600073ffffffffffffffffffffffffffffffffffffffff16816000015173ffffffffffffffffffffffffffffffffffffffff161461231d57809250505061235f565b50808060019003915050612229565b506040517fe7c0edfb00000000000000000000000000000000000000000000000000000000815260040160405180910390fd5b919050565b6000600760009054906101000a900473ffffffffffffffffffffffffffffffffffffffff16905081600760006101000a81548173ffffffffffffffffffffffffffffffffffffffff021916908373ffffffffffffffffffffffffffffffffffffffff1602179055508173ffffffffffffffffffffffffffffffffffffffff168173ffffffffffffffffffffffffffffffffffffffff167f8be0079c531659141344cd1fd0a4f28419497f9722a3daafe3b4186f6b6457e060405160405180910390a35050565b600061244b8473ffffffffffffffffffffffffffffffffffffffff16612783565b156125ab578373ffffffffffffffffffffffffffffffffffffffff1663150b7a02612474611bd2565b8786866040518563ffffffff1660e01b8152600401612496949392919061335d565b602060405180830381600087803b1580156124b057600080fd5b505af19250505080156124e157506040513d601f19601f820116820180604052508101906124de9190612ef3565b60015b61255b573d8060008114612511576040519150601f19603f3d011682016040523d82523d6000602084013e612516565b606091505b50600081511415612553576040517fd1a57ed600000000000000000000000000000000000000000000000000000000815260040160405180910390fd5b805181602001fd5b63150b7a0260e01b7bffffffffffffffffffffffffffffffffffffffffffffffffffffffff1916817bffffffffffffffffffffffffffffffffffffffffffffffffffffffff1916149150506125b0565b600190505b949350505050565b60606000821415612600576040518060400160405280600181526020017f30000000000000000000000000000000000000000000000000000000000000008152509050612760565b600082905060005b6000821461263257808061261b906138b4565b915050600a8261262b91906136dc565b9150612608565b60008167ffffffffffffffff811115612674577f4e487b7100000000000000000000000000000000000000000000000000000000600052604160045260246000fd5b6040519080825280601f01601f1916602001820160405280156126a65781602001600182028036833780820191505090505b5090505b60008514612759576001826126bf9190613767565b9150600a856126ce91906138fd565b60306126da9190613686565b60f81b818381518110612716577f4e487b7100000000000000000000000000000000000000000000000000000000600052603260045260246000fd5b60200101907effffffffffffffffffffffffffffffffffffffffffffffffffffffffffffff1916908160001a905350600a8561275291906136dc565b94506126aa565b8093505050505b919050565b61277283838360016127a6565b505050565b50505050565b50505050565b6000808273ffffffffffffffffffffffffffffffffffffffff163b119050919050565b600080549050600073ffffffffffffffffffffffffffffffffffffffff168573ffffffffffffffffffffffffffffffffffffffff161415612813576040517f2e07630000000000000000000000000000000000000000000000000000000000815260040160405180910390fd5b600084141561284e576040517fb562e8dd00000000000000000000000000000000000000000000000000000000815260040160405180910390fd5b61285b6000868387612777565b83600460008773ffffffffffffffffffffffffffffffffffffffff1673ffffffffffffffffffffffffffffffffffffffff16815260200190815260200160002060000160008282829054906101000a90046fffffffffffffffffffffffffffffffff160192506101000a8154816fffffffffffffffffffffffffffffffff02191690836fffffffffffffffffffffffffffffffff16021790555083600460008773ffffffffffffffffffffffffffffffffffffffff1673ffffffffffffffffffffffffffffffffffffffff16815260200190815260200160002060000160108282829054906101000a90046fffffffffffffffffffffffffffffffff160192506101000a8154816fffffffffffffffffffffffffffffffff02191690836fffffffffffffffffffffffffffffffff160217905550846003600083815260200190815260200160002060000160006101000a81548173ffffffffffffffffffffffffffffffffffffffff021916908373ffffffffffffffffffffffffffffffffffffffff160217905550426003600083815260200190815260200160002060000160146101000a81548167ffffffffffffffff021916908367ffffffffffffffff160217905550600081905060005b85811015612af057818773ffffffffffffffffffffffffffffffffffffffff16600073ffffffffffffffffffffffffffffffffffffffff167fddf252ad1be2c89b69c2b068fc378daa952ba7f163c4a11628f55a4df523b3ef60405160405180910390a4838015612aa45750612aa2600088848861242a565b155b15612adb576040517fd1a57ed600000000000000000000000000000000000000000000000000000000815260040160405180910390fd5b81806001019250508080600101915050612a29565b508060008190555050612b06600086838761277d565b5050505050565b828054612b1990613851565b90600052602060002090601f016020900481019282612b3b5760008555612b82565b82601f10612b5457805160ff1916838001178555612b82565b82800160010185558215612b82579182015b82811115612b81578251825591602001919060010190612b66565b5b509050612b8f9190612bcd565b5090565b6040518060400160405280600073ffffffffffffffffffffffffffffffffffffffff168152602001600067ffffffffffffffff1681525090565b5b80821115612be6576000816000905550600101612bce565b5090565b6000612bfd612bf884613588565b613563565b905082815260208101848484011115612c1557600080fd5b612c2084828561380f565b509392505050565b6000612c3b612c36846135b9565b613563565b905082815260208101848484011115612c5357600080fd5b612c5e84828561380f565b509392505050565b600081359050612c7581613c0d565b92915050565b600081359050612c8a81613c24565b92915050565b600081359050612c9f81613c3b565b92915050565b600081519050612cb481613c3b565b92915050565b600082601f830112612ccb57600080fd5b8135612cdb848260208601612bea565b91505092915050565b600082601f830112612cf557600080fd5b8135612d05848260208601612c28565b91505092915050565b600081359050612d1d81613c52565b92915050565b600060208284031215612d3557600080fd5b6000612d4384828501612c66565b91505092915050565b60008060408385031215612d5f57600080fd5b6000612d6d85828601612c66565b9250506020612d7e85828601612c66565b9150509250929050565b600080600060608486031215612d9d57600080fd5b6000612dab86828701612c66565b9350506020612dbc86828701612c66565b9250506040612dcd86828701612d0e565b9150509250925092565b60008060008060808587031215612ded57600080fd5b6000612dfb87828801612c66565b9450506020612e0c87828801612c66565b9350506040612e1d87828801612d0e565b925050606085013567ffffffffffffffff811115612e3a57600080fd5b612e4687828801612cba565b91505092959194509250565b60008060408385031215612e6557600080fd5b6000612e7385828601612c66565b9250506020612e8485828601612c7b565b9150509250929050565b60008060408385031215612ea157600080fd5b6000612eaf85828601612c66565b9250506020612ec085828601612d0e565b9150509250929050565b600060208284031215612edc57600080fd5b6000612eea84828501612c90565b91505092915050565b600060208284031215612f0557600080fd5b6000612f1384828501612ca5565b91505092915050565b600060208284031215612f2e57600080fd5b600082013567ffffffffffffffff811115612f4857600080fd5b612f5484828501612ce4565b91505092915050565b600060208284031215612f6f57600080fd5b6000612f7d84828501612d0e565b91505092915050565b6000612f9283836132e0565b60208301905092915050565b612fa78161379b565b82525050565b6000612fb88261360f565b612fc2818561363d565b9350612fcd836135ea565b8060005b83811015612ffe578151612fe58882612f86565b9750612ff083613630565b925050600181019050612fd1565b5085935050505092915050565b613014816137ad565b82525050565b60006130258261361a565b61302f818561364e565b935061303f81856020860161381e565b613048816139ea565b840191505092915050565b600061305e82613625565b613068818561366a565b935061307881856020860161381e565b613081816139ea565b840191505092915050565b600061309782613625565b6130a1818561367b565b93506130b181856020860161381e565b80840191505092915050565b600081546130ca81613851565b6130d4818661367b565b945060018216600081146130ef576001811461310057613133565b60ff19831686528186019350613133565b613109856135fa565b60005b8381101561312b5781548189015260018201915060208101905061310c565b838801955050505b50505092915050565b600061314960068361366a565b9150613154826139fb565b602082019050919050565b600061316c60268361366a565b915061317782613a24565b604082019050919050565b600061318f600f8361366a565b915061319a82613a73565b602082019050919050565b60006131b260058361367b565b91506131bd82613a9c565b600582019050919050565b60006131d560208361366a565b91506131e082613ac5565b602082019050919050565b60006131f8602f8361366a565b915061320382613aee565b604082019050919050565b600061321b60168361366a565b915061322682613b3d565b602082019050919050565b600061323e60118361366a565b915061324982613b66565b602082019050919050565b600061326160008361365f565b915061326c82613b8f565b600082019050919050565b6000613284601e8361366a565b915061328f82613b92565b602082019050919050565b60006132a7601a8361366a565b91506132b282613bbb565b602082019050919050565b60006132ca600f8361366a565b91506132d582613be4565b602082019050919050565b6132e981613805565b82525050565b6132f881613805565b82525050565b600061330a82856130bd565b9150613316828461308c565b9150613321826131a5565b91508190509392505050565b600061333882613254565b9150819050919050565b60006020820190506133576000830184612f9e565b92915050565b60006080820190506133726000830187612f9e565b61337f6020830186612f9e565b61338c60408301856132ef565b818103606083015261339e818461301a565b905095945050505050565b600060208201905081810360008301526133c38184612fad565b905092915050565b60006020820190506133e0600083018461300b565b92915050565b600060208201905081810360008301526134008184613053565b905092915050565b600060208201905081810360008301526134218161313c565b9050919050565b600060208201905081810360008301526134418161315f565b9050919050565b6000602082019050818103600083015261346181613182565b9050919050565b60006020820190508181036000830152613481816131c8565b9050919050565b600060208201905081810360008301526134a1816131eb565b9050919050565b600060208201905081810360008301526134c18161320e565b9050919050565b600060208201905081810360008301526134e181613231565b9050919050565b6000602082019050818103600083015261350181613277565b9050919050565b600060208201905081810360008301526135218161329a565b9050919050565b60006020820190508181036000830152613541816132bd565b9050919050565b600060208201905061355d60008301846132ef565b92915050565b600061356d61357e565b90506135798282613883565b919050565b6000604051905090565b600067ffffffffffffffff8211156135a3576135a26139bb565b5b6135ac826139ea565b9050602081019050919050565b600067ffffffffffffffff8211156135d4576135d36139bb565b5b6135dd826139ea565b9050602081019050919050565b6000819050602082019050919050565b60008190508160005260206000209050919050565b600081519050919050565b600081519050919050565b600081519050919050565b6000602082019050919050565b600082825260208201905092915050565b600082825260208201905092915050565b600081905092915050565b600082825260208201905092915050565b600081905092915050565b600061369182613805565b915061369c83613805565b9250827fffffffffffffffffffffffffffffffffffffffffffffffffffffffffffffffff038211156136d1576136d061392e565b5b828201905092915050565b60006136e782613805565b91506136f283613805565b9250826137025761370161395d565b5b828204905092915050565b600061371882613805565b915061372383613805565b9250817fffffffffffffffffffffffffffffffffffffffffffffffffffffffffffffffff048311821515161561375c5761375b61392e565b5b828202905092915050565b600061377282613805565b915061377d83613805565b9250828210156137905761378f61392e565b5b828203905092915050565b60006137a6826137e5565b9050919050565b60008115159050919050565b60007fffffffff0000000000000000000000000000000000000000000000000000000082169050919050565b600073ffffffffffffffffffffffffffffffffffffffff82169050919050565b6000819050919050565b82818337600083830152505050565b60005b8381101561383c578082015181840152602081019050613821565b8381111561384b576000848401525b50505050565b6000600282049050600182168061386957607f821691505b6020821081141561387d5761387c61398c565b5b50919050565b61388c826139ea565b810181811067ffffffffffffffff821117156138ab576138aa6139bb565b5b80604052505050565b60006138bf82613805565b91507fffffffffffffffffffffffffffffffffffffffffffffffffffffffffffffffff8214156138f2576138f161392e565b5b600182019050919050565b600061390882613805565b915061391383613805565b9250826139235761392261395d565b5b828206905092915050565b7f4e487b7100000000000000000000000000000000000000000000000000000000600052601160045260246000fd5b7f4e487b7100000000000000000000000000000000000000000000000000000000600052601260045260246000fd5b7f4e487b7100000000000000000000000000000000000000000000000000000000600052602260045260246000fd5b7f4e487b7100000000000000000000000000000000000000000000000000000000600052604160045260246000fd5b6000601f19601f8301169050919050565b7f42656c6f77200000000000000000000000000000000000000000000000000000600082015250565b7f4f776e61626c653a206e6577206f776e657220697320746865207a65726f206160008201527f6464726573730000000000000000000000000000000000000000000000000000602082015250565b7f4e6f7420596574204163746976652e0000000000000000000000000000000000600082015250565b7f2e6a736f6e000000000000000000000000000000000000000000000000000000600082015250565b7f4f776e61626c653a2063616c6c6572206973206e6f7420746865206f776e6572600082015250565b7f4552433732314d657461646174613a2055524920717565727920666f72206e6f60008201527f6e6578697374656e7420746f6b656e0000000000000000000000000000000000602082015250565b7f4e6f2062616c616e636520746f20776974686472617700000000000000000000600082015250565b7f4265796f6e64204d617820537570706c79000000000000000000000000000000600082015250565b50565b7f43616e6e6f742062652063616c6c6564206279206120636f6e74726163740000600082015250565b7f4661696c656420746f207769746864726177207061796d656e74000000000000600082015250565b7f416c7265616479206d696e746564210000000000000000000000000000000000600082015250565b613c168161379b565b8114613c2157600080fd5b50565b613c2d816137ad565b8114613c3857600080fd5b50565b613c44816137b9565b8114613c4f57600080fd5b50565b613c5b81613805565b8114613c6657600080fd5b5056fea2646970667358221220a1fc1cd09942d4be53a172352b900cc968a717187e3408baac99d2bf5b637a2b64736f6c63430008040033",
  "linkReferences": {},
  "deployedLinkReferences": {}
}