{
  "_format": "hh-sol-artifact-1",
  "contractName": "ERC721A",
  "sourceName": "contracts/ERC721A.sol",
  "abi": [
    {
      "inputs": [
        {
          "internalType": "string",
          "name": "name_",
          "type": "string"
        },
        {
          "internalType": "string",
          "name": "symbol_",
          "type": "string"
        }
      ],
      "stateMutability": "nonpayable",
      "type": "constructor"
    },
    {
      "inputs": [],
      "name": "ApprovalCallerNotOwnerNorApproved",
      "type": "error"
    },
    {
      "inputs": [],
      "name": "ApprovalQueryForNonexistentToken",
      "type": "error"
    },
    {
      "inputs": [],
      "name": "ApprovalToCurrentOwner",
      "type": "error"
    },
    {
      "inputs": [],
      "name": "ApproveToCaller",
      "type": "error"
    },
    {
      "inputs": [],
      "name": "BalanceQueryForZeroAddress",
      "type": "error"
    },
    {
      "inputs": [],
      "name": "OwnerIndexOutOfBounds",
      "type": "error"
    },
    {
      "inputs": [],
      "name": "OwnerQueryForNonexistentToken",
      "type": "error"
    },
    {
      "inputs": [],
      "name": "TokenIndexOutOfBounds",
      "type": "error"
    },
    {
      "inputs": [],
      "name": "TransferCallerNotOwnerNorApproved",
      "type": "error"
    },
    {
      "inputs": [],
      "name": "TransferFromIncorrectOwner",
      "type": "error"
    },
    {
      "inputs": [],
      "name": "TransferToNonERC721ReceiverImplementer",
      "type": "error"
    },
    {
      "inputs": [],
      "name": "TransferToZeroAddress",
      "type": "error"
    },
    {
      "inputs": [],
      "name": "URIQueryForNonexistentToken",
      "type": "error"
    },
    {
      "inputs": [],
      "name": "UnableDetermineTokenOwner",
      "type": "error"
    },
    {
      "anonymous": false,
      "inputs": [
        {
          "indexed": true,
          "internalType": "address",
          "name": "owner",
          "type": "address"
        },
        {
          "indexed": true,
          "internalType": "address",
          "name": "approved",
          "type": "address"
        },
        {
          "indexed": true,
          "internalType": "uint256",
          "name": "tokenId",
          "type": "uint256"
        }
      ],
      "name": "Approval",
      "type": "event"
    },
    {
      "anonymous": false,
      "inputs": [
        {
          "indexed": true,
          "internalType": "address",
          "name": "owner",
          "type": "address"
        },
        {
          "indexed": true,
          "internalType": "address",
          "name": "operator",
          "type": "address"
        },
        {
          "indexed": false,
          "internalType": "bool",
          "name": "approved",
          "type": "bool"
        }
      ],
      "name": "ApprovalForAll",
      "type": "event"
    },
    {
      "anonymous": false,
      "inputs": [
        {
          "indexed": true,
          "internalType": "address",
          "name": "from",
          "type": "address"
        },
        {
          "indexed": true,
          "internalType": "address",
          "name": "to",
          "type": "address"
        },
        {
          "indexed": true,
          "internalType": "uint256",
          "name": "tokenId",
          "type": "uint256"
        }
      ],
      "name": "Transfer",
      "type": "event"
    },
    {
      "inputs": [
        {
          "internalType": "address",
          "name": "to",
          "type": "address"
        },
        {
          "internalType": "uint256",
          "name": "tokenId",
          "type": "uint256"
        }
      ],
      "name": "approve",
      "outputs": [],
      "stateMutability": "nonpayable",
      "type": "function"
    },
    {
      "inputs": [
        {
          "internalType": "address",
          "name": "owner",
          "type": "address"
        }
      ],
      "name": "balanceOf",
      "outputs": [
        {
          "internalType": "uint256",
          "name": "",
          "type": "uint256"
        }
      ],
      "stateMutability": "view",
      "type": "function"
    },
    {
      "inputs": [
        {
          "internalType": "uint256",
          "name": "tokenId",
          "type": "uint256"
        }
      ],
      "name": "getApproved",
      "outputs": [
        {
          "internalType": "address",
          "name": "",
          "type": "address"
        }
      ],
      "stateMutability": "view",
      "type": "function"
    },
    {
      "inputs": [
        {
          "internalType": "address",
          "name": "owner",
          "type": "address"
        },
        {
          "internalType": "address",
          "name": "operator",
          "type": "address"
        }
      ],
      "name": "isApprovedForAll",
      "outputs": [
        {
          "internalType": "bool",
          "name": "",
          "type": "bool"
        }
      ],
      "stateMutability": "view",
      "type": "function"
    },
    {
      "inputs": [],
      "name": "name",
      "outputs": [
        {
          "internalType": "string",
          "name": "",
          "type": "string"
        }
      ],
      "stateMutability": "view",
      "type": "function"
    },
    {
      "inputs": [
        {
          "internalType": "uint256",
          "name": "tokenId",
          "type": "uint256"
        }
      ],
      "name": "ownerOf",
      "outputs": [
        {
          "internalType": "address",
          "name": "",
          "type": "address"
        }
      ],
      "stateMutability": "view",
      "type": "function"
    },
    {
      "inputs": [
        {
          "internalType": "address",
          "name": "from",
          "type": "address"
        },
        {
          "internalType": "address",
          "name": "to",
          "type": "address"
        },
        {
          "internalType": "uint256",
          "name": "tokenId",
          "type": "uint256"
        }
      ],
      "name": "safeTransferFrom",
      "outputs": [],
      "stateMutability": "nonpayable",
      "type": "function"
    },
    {
      "inputs": [
        {
          "internalType": "address",
          "name": "from",
          "type": "address"
        },
        {
          "internalType": "address",
          "name": "to",
          "type": "address"
        },
        {
          "internalType": "uint256",
          "name": "tokenId",
          "type": "uint256"
        },
        {
          "internalType": "bytes",
          "name": "_data",
          "type": "bytes"
        }
      ],
      "name": "safeTransferFrom",
      "outputs": [],
      "stateMutability": "nonpayable",
      "type": "function"
    },
    {
      "inputs": [
        {
          "internalType": "address",
          "name": "operator",
          "type": "address"
        },
        {
          "internalType": "bool",
          "name": "approved",
          "type": "bool"
        }
      ],
      "name": "setApprovalForAll",
      "outputs": [],
      "stateMutability": "nonpayable",
      "type": "function"
    },
    {
      "inputs": [
        {
          "internalType": "bytes4",
          "name": "interfaceId",
          "type": "bytes4"
        }
      ],
      "name": "supportsInterface",
      "outputs": [
        {
          "internalType": "bool",
          "name": "",
          "type": "bool"
        }
      ],
      "stateMutability": "view",
      "type": "function"
    },
    {
      "inputs": [],
      "name": "symbol",
      "outputs": [
        {
          "internalType": "string",
          "name": "",
          "type": "string"
        }
      ],
      "stateMutability": "view",
      "type": "function"
    },
    {
      "inputs": [
        {
          "internalType": "uint256",
          "name": "index",
          "type": "uint256"
        }
      ],
      "name": "tokenByIndex",
      "outputs": [
        {
          "internalType": "uint256",
          "name": "",
          "type": "uint256"
        }
      ],
      "stateMutability": "view",
      "type": "function"
    },
    {
      "inputs": [
        {
          "internalType": "address",
          "name": "owner",
          "type": "address"
        },
        {
          "internalType": "uint256",
          "name": "index",
          "type": "uint256"
        }
      ],
      "name": "tokenOfOwnerByIndex",
      "outputs": [
        {
          "internalType": "uint256",
          "name": "",
          "type": "uint256"
        }
      ],
      "stateMutability": "view",
      "type": "function"
    },
    {
      "inputs": [
        {
          "internalType": "uint256",
          "name": "tokenId",
          "type": "uint256"
        }
      ],
      "name": "tokenURI",
      "outputs": [
        {
          "internalType": "string",
          "name": "",
          "type": "string"
        }
      ],
      "stateMutability": "view",
      "type": "function"
    },
    {
      "inputs": [],
      "name": "totalSupply",
      "outputs": [
        {
          "internalType": "uint256",
          "name": "",
          "type": "uint256"
        }
      ],
      "stateMutability": "view",
      "type": "function"
    },
    {
      "inputs": [
        {
          "internalType": "address",
          "name": "from",
          "type": "address"
        },
        {
          "internalType": "address",
          "name": "to",
          "type": "address"
        },
        {
          "internalType": "uint256",
          "name": "tokenId",
          "type": "uint256"
        }
      ],
      "name": "transferFrom",
      "outputs": [],
      "stateMutability": "nonpayable",
      "type": "function"
    }
  ],
  "bytecode": "0x60806040523480156200001157600080fd5b50604051620025c9380380620025c9833981810160405281019062000037919062000193565b81600190805190602001906200004f92919062000071565b5080600290805190602001906200006892919062000071565b50505062000376565b8280546200007f906200029b565b90600052602060002090601f016020900481019282620000a35760008555620000ef565b82601f10620000be57805160ff1916838001178555620000ef565b82800160010185558215620000ef579182015b82811115620000ee578251825591602001919060010190620000d1565b5b509050620000fe919062000102565b5090565b5b808211156200011d57600081600090555060010162000103565b5090565b60006200013862000132846200022f565b62000206565b9050828152602081018484840111156200015157600080fd5b6200015e84828562000265565b509392505050565b600082601f8301126200017857600080fd5b81516200018a84826020860162000121565b91505092915050565b60008060408385031215620001a757600080fd5b600083015167ffffffffffffffff811115620001c257600080fd5b620001d08582860162000166565b925050602083015167ffffffffffffffff811115620001ee57600080fd5b620001fc8582860162000166565b9150509250929050565b60006200021262000225565b9050620002208282620002d1565b919050565b6000604051905090565b600067ffffffffffffffff8211156200024d576200024c62000336565b5b620002588262000365565b9050602081019050919050565b60005b838110156200028557808201518184015260208101905062000268565b8381111562000295576000848401525b50505050565b60006002820490506001821680620002b457607f821691505b60208210811415620002cb57620002ca62000307565b5b50919050565b620002dc8262000365565b810181811067ffffffffffffffff82111715620002fe57620002fd62000336565b5b80604052505050565b7f4e487b7100000000000000000000000000000000000000000000000000000000600052602260045260246000fd5b7f4e487b7100000000000000000000000000000000000000000000000000000000600052604160045260246000fd5b6000601f19601f8301169050919050565b61224380620003866000396000f3fe608060405234801561001057600080fd5b50600436106101005760003560e01c80634f6ccce711610097578063a22cb46511610066578063a22cb465146102d3578063b88d4fde146102ef578063c87b56dd1461030b578063e985e9c51461033b57610100565b80634f6ccce7146102255780636352211e1461025557806370a082311461028557806395d89b41146102b557610100565b806318160ddd116100d357806318160ddd1461019f57806323b872dd146101bd5780632f745c59146101d957806342842e0e1461020957610100565b806301ffc9a71461010557806306fdde0314610135578063081812fc14610153578063095ea7b314610183575b600080fd5b61011f600480360381019061011a9190611bcf565b61036b565b60405161012c9190611da5565b60405180910390f35b61013d6104b5565b60405161014a9190611dc0565b60405180910390f35b61016d60048036038101906101689190611c21565b610547565b60405161017a9190611d3e565b60405180910390f35b61019d60048036038101906101989190611b93565b6105c3565b005b6101a76106ce565b6040516101b49190611de2565b60405180910390f35b6101d760048036038101906101d29190611a8d565b6106d7565b005b6101f360048036038101906101ee9190611b93565b6106e7565b6040516102009190611de2565b60405180910390f35b610223600480360381019061021e9190611a8d565b6108ce565b005b61023f600480360381019061023a9190611c21565b6108ee565b60405161024c9190611de2565b60405180910390f35b61026f600480360381019061026a9190611c21565b610938565b60405161027c9190611d3e565b60405180910390f35b61029f600480360381019061029a9190611a28565b61094e565b6040516102ac9190611de2565b60405180910390f35b6102bd610a2e565b6040516102ca9190611dc0565b60405180910390f35b6102ed60048036038101906102e89190611b57565b610ac0565b005b61030960048036038101906103049190611adc565b610c38565b005b61032560048036038101906103209190611c21565b610c8b565b6040516103329190611dc0565b60405180910390f35b61035560048036038101906103509190611a51565b610d2a565b6040516103629190611da5565b60405180910390f35b60007f80ac58cd000000000000000000000000000000000000000000000000000000007bffffffffffffffffffffffffffffffffffffffffffffffffffffffff1916827bffffffffffffffffffffffffffffffffffffffffffffffffffffffff1916148061043657507f5b5e139f000000000000000000000000000000000000000000000000000000007bffffffffffffffffffffffffffffffffffffffffffffffffffffffff1916827bffffffffffffffffffffffffffffffffffffffffffffffffffffffff1916145b8061049e57507f780e9d63000000000000000000000000000000000000000000000000000000007bffffffffffffffffffffffffffffffffffffffffffffffffffffffff1916827bffffffffffffffffffffffffffffffffffffffffffffffffffffffff1916145b806104ae57506104ad82610dbe565b5b9050919050565b6060600180546104c490612007565b80601f01602080910402602001604051908101604052809291908181526020018280546104f090612007565b801561053d5780601f106105125761010080835404028352916020019161053d565b820191906000526020600020905b81548152906001019060200180831161052057829003601f168201915b5050505050905090565b600061055282610e28565b610588576040517fcf4700e400000000000000000000000000000000000000000000000000000000815260040160405180910390fd5b6005600083815260200190815260200160002060009054906101000a900473ffffffffffffffffffffffffffffffffffffffff169050919050565b60006105ce82610938565b90508073ffffffffffffffffffffffffffffffffffffffff168373ffffffffffffffffffffffffffffffffffffffff161415610636576040517f943f7b8c00000000000000000000000000000000000000000000000000000000815260040160405180910390fd5b8073ffffffffffffffffffffffffffffffffffffffff16610655610e35565b73ffffffffffffffffffffffffffffffffffffffff1614158015610687575061068581610680610e35565b610d2a565b155b156106be576040517fcfb3b94200000000000000000000000000000000000000000000000000000000815260040160405180910390fd5b6106c9838383610e3d565b505050565b60008054905090565b6106e2838383610eef565b505050565b60006106f28361094e565b821061072a576040517f0ddac30e00000000000000000000000000000000000000000000000000000000815260040160405180910390fd5b60006107346106ce565b905060008060005b8381101561088e576000600360008381526020019081526020016000206040518060400160405290816000820160009054906101000a900473ffffffffffffffffffffffffffffffffffffffff1673ffffffffffffffffffffffffffffffffffffffff1673ffffffffffffffffffffffffffffffffffffffff1681526020016000820160149054906101000a900467ffffffffffffffff1667ffffffffffffffff1667ffffffffffffffff16815250509050600073ffffffffffffffffffffffffffffffffffffffff16816000015173ffffffffffffffffffffffffffffffffffffffff161461082e57806000015192505b8773ffffffffffffffffffffffffffffffffffffffff168373ffffffffffffffffffffffffffffffffffffffff16141561088057868414156108775781955050505050506108c8565b83806001019450505b50808060010191505061073c565b5060006108c4577f4e487b7100000000000000000000000000000000000000000000000000000000600052600160045260246000fd5b5050505b92915050565b6108e983838360405180602001604052806000815250610c38565b505050565b60006108f86106ce565b8210610930576040517fa723001c00000000000000000000000000000000000000000000000000000000815260040160405180910390fd5b819050919050565b600061094382611414565b600001519050919050565b60008073ffffffffffffffffffffffffffffffffffffffff168273ffffffffffffffffffffffffffffffffffffffff1614156109b6576040517f8f4eb60400000000000000000000000000000000000000000000000000000000815260040160405180910390fd5b600460008373ffffffffffffffffffffffffffffffffffffffff1673ffffffffffffffffffffffffffffffffffffffff16815260200190815260200160002060000160009054906101000a90046fffffffffffffffffffffffffffffffff166fffffffffffffffffffffffffffffffff169050919050565b606060028054610a3d90612007565b80601f0160208091040260200160405190810160405280929190818152602001828054610a6990612007565b8015610ab65780601f10610a8b57610100808354040283529160200191610ab6565b820191906000526020600020905b815481529060010190602001808311610a9957829003601f168201915b5050505050905090565b610ac8610e35565b73ffffffffffffffffffffffffffffffffffffffff168273ffffffffffffffffffffffffffffffffffffffff161415610b2d576040517fb06307db00000000000000000000000000000000000000000000000000000000815260040160405180910390fd5b8060066000610b3a610e35565b73ffffffffffffffffffffffffffffffffffffffff1673ffffffffffffffffffffffffffffffffffffffff16815260200190815260200160002060008473ffffffffffffffffffffffffffffffffffffffff1673ffffffffffffffffffffffffffffffffffffffff16815260200190815260200160002060006101000a81548160ff0219169083151502179055508173ffffffffffffffffffffffffffffffffffffffff16610be7610e35565b73ffffffffffffffffffffffffffffffffffffffff167f17307eab39ab6107e8899845ad3d59bd9653f200f220920489ca2b5937696c3183604051610c2c9190611da5565b60405180910390a35050565b610c43848484610eef565b610c4f8484848461159c565b610c85576040517fd1a57ed600000000000000000000000000000000000000000000000000000000815260040160405180910390fd5b50505050565b6060610c9682610e28565b610ccc576040517fa14c4b5000000000000000000000000000000000000000000000000000000000815260040160405180910390fd5b6000610cd661172a565b9050600081511415610cf75760405180602001604052806000815250610d22565b80610d0184611741565b604051602001610d12929190611d1a565b6040516020818303038152906040525b915050919050565b6000600660008473ffffffffffffffffffffffffffffffffffffffff1673ffffffffffffffffffffffffffffffffffffffff16815260200190815260200160002060008373ffffffffffffffffffffffffffffffffffffffff1673ffffffffffffffffffffffffffffffffffffffff16815260200190815260200160002060009054906101000a900460ff16905092915050565b60007f01ffc9a7000000000000000000000000000000000000000000000000000000007bffffffffffffffffffffffffffffffffffffffffffffffffffffffff1916827bffffffffffffffffffffffffffffffffffffffffffffffffffffffff1916149050919050565b6000805482109050919050565b600033905090565b826005600084815260200190815260200160002060006101000a81548173ffffffffffffffffffffffffffffffffffffffff021916908373ffffffffffffffffffffffffffffffffffffffff160217905550818373ffffffffffffffffffffffffffffffffffffffff168273ffffffffffffffffffffffffffffffffffffffff167f8c5be1e5ebec7d5bd14f71427d1e84f3dd0314c0f7b2291e5b200ac8c7c3b92560405160405180910390a4505050565b6000610efa82611414565b90506000816000015173ffffffffffffffffffffffffffffffffffffffff16610f21610e35565b73ffffffffffffffffffffffffffffffffffffffff161480610f7d5750610f46610e35565b73ffffffffffffffffffffffffffffffffffffffff16610f6584610547565b73ffffffffffffffffffffffffffffffffffffffff16145b80610f995750610f988260000151610f93610e35565b610d2a565b5b905080610fd2576040517f59c896be00000000000000000000000000000000000000000000000000000000815260040160405180910390fd5b8473ffffffffffffffffffffffffffffffffffffffff16826000015173ffffffffffffffffffffffffffffffffffffffff161461103b576040517fa114810000000000000000000000000000000000000000000000000000000000815260040160405180910390fd5b600073ffffffffffffffffffffffffffffffffffffffff168473ffffffffffffffffffffffffffffffffffffffff1614156110a2576040517fea553b3400000000000000000000000000000000000000000000000000000000815260040160405180910390fd5b6110af85858560016118ee565b6110bf6000848460000151610e3d565b6001600460008773ffffffffffffffffffffffffffffffffffffffff1673ffffffffffffffffffffffffffffffffffffffff16815260200190815260200160002060000160008282829054906101000a90046fffffffffffffffffffffffffffffffff160392506101000a8154816fffffffffffffffffffffffffffffffff02191690836fffffffffffffffffffffffffffffffff1602179055506001600460008673ffffffffffffffffffffffffffffffffffffffff1673ffffffffffffffffffffffffffffffffffffffff16815260200190815260200160002060000160008282829054906101000a90046fffffffffffffffffffffffffffffffff160192506101000a8154816fffffffffffffffffffffffffffffffff02191690836fffffffffffffffffffffffffffffffff160217905550836003600085815260200190815260200160002060000160006101000a81548173ffffffffffffffffffffffffffffffffffffffff021916908373ffffffffffffffffffffffffffffffffffffffff160217905550426003600085815260200190815260200160002060000160146101000a81548167ffffffffffffffff021916908367ffffffffffffffff1602179055506000600184019050600073ffffffffffffffffffffffffffffffffffffffff166003600083815260200190815260200160002060000160009054906101000a900473ffffffffffffffffffffffffffffffffffffffff1673ffffffffffffffffffffffffffffffffffffffff1614156113a45761130381610e28565b156113a35782600001516003600083815260200190815260200160002060000160006101000a81548173ffffffffffffffffffffffffffffffffffffffff021916908373ffffffffffffffffffffffffffffffffffffffff16021790555082602001516003600083815260200190815260200160002060000160146101000a81548167ffffffffffffffff021916908367ffffffffffffffff1602179055505b5b50828473ffffffffffffffffffffffffffffffffffffffff168673ffffffffffffffffffffffffffffffffffffffff167fddf252ad1be2c89b69c2b068fc378daa952ba7f163c4a11628f55a4df523b3ef60405160405180910390a461140d85858560016118f4565b5050505050565b61141c61191d565b61142582610e28565b61145b576040517fdf2d9b4200000000000000000000000000000000000000000000000000000000815260040160405180910390fd5b60008290505b60008110611564576000600360008381526020019081526020016000206040518060400160405290816000820160009054906101000a900473ffffffffffffffffffffffffffffffffffffffff1673ffffffffffffffffffffffffffffffffffffffff1673ffffffffffffffffffffffffffffffffffffffff1681526020016000820160149054906101000a900467ffffffffffffffff1667ffffffffffffffff1667ffffffffffffffff16815250509050600073ffffffffffffffffffffffffffffffffffffffff16816000015173ffffffffffffffffffffffffffffffffffffffff1614611555578092505050611597565b50808060019003915050611461565b506040517fe7c0edfb00000000000000000000000000000000000000000000000000000000815260040160405180910390fd5b919050565b60006115bd8473ffffffffffffffffffffffffffffffffffffffff166118fa565b1561171d578373ffffffffffffffffffffffffffffffffffffffff1663150b7a026115e6610e35565b8786866040518563ffffffff1660e01b81526004016116089493929190611d59565b602060405180830381600087803b15801561162257600080fd5b505af192505050801561165357506040513d601f19601f820116820180604052508101906116509190611bf8565b60015b6116cd573d8060008114611683576040519150601f19603f3d011682016040523d82523d6000602084013e611688565b606091505b506000815114156116c5576040517fd1a57ed600000000000000000000000000000000000000000000000000000000815260040160405180910390fd5b805181602001fd5b63150b7a0260e01b7bffffffffffffffffffffffffffffffffffffffffffffffffffffffff1916817bffffffffffffffffffffffffffffffffffffffffffffffffffffffff191614915050611722565b600190505b949350505050565b606060405180602001604052806000815250905090565b60606000821415611789576040518060400160405280600181526020017f300000000000000000000000000000000000000000000000000000000000000081525090506118e9565b600082905060005b600082146117bb5780806117a49061206a565b915050600a826117b49190611eec565b9150611791565b60008167ffffffffffffffff8111156117fd577f4e487b7100000000000000000000000000000000000000000000000000000000600052604160045260246000fd5b6040519080825280601f01601f19166020018201604052801561182f5781602001600182028036833780820191505090505b5090505b600085146118e2576001826118489190611f1d565b9150600a8561185791906120b3565b60306118639190611e96565b60f81b81838151811061189f577f4e487b7100000000000000000000000000000000000000000000000000000000600052603260045260246000fd5b60200101907effffffffffffffffffffffffffffffffffffffffffffffffffffffffffffff1916908160001a905350600a856118db9190611eec565b9450611833565b8093505050505b919050565b50505050565b50505050565b6000808273ffffffffffffffffffffffffffffffffffffffff163b119050919050565b6040518060400160405280600073ffffffffffffffffffffffffffffffffffffffff168152602001600067ffffffffffffffff1681525090565b600061196a61196584611e22565b611dfd565b90508281526020810184848401111561198257600080fd5b61198d848285611fc5565b509392505050565b6000813590506119a4816121b1565b92915050565b6000813590506119b9816121c8565b92915050565b6000813590506119ce816121df565b92915050565b6000815190506119e3816121df565b92915050565b600082601f8301126119fa57600080fd5b8135611a0a848260208601611957565b91505092915050565b600081359050611a22816121f6565b92915050565b600060208284031215611a3a57600080fd5b6000611a4884828501611995565b91505092915050565b60008060408385031215611a6457600080fd5b6000611a7285828601611995565b9250506020611a8385828601611995565b9150509250929050565b600080600060608486031215611aa257600080fd5b6000611ab086828701611995565b9350506020611ac186828701611995565b9250506040611ad286828701611a13565b9150509250925092565b60008060008060808587031215611af257600080fd5b6000611b0087828801611995565b9450506020611b1187828801611995565b9350506040611b2287828801611a13565b925050606085013567ffffffffffffffff811115611b3f57600080fd5b611b4b878288016119e9565b91505092959194509250565b60008060408385031215611b6a57600080fd5b6000611b7885828601611995565b9250506020611b89858286016119aa565b9150509250929050565b60008060408385031215611ba657600080fd5b6000611bb485828601611995565b9250506020611bc585828601611a13565b9150509250929050565b600060208284031215611be157600080fd5b6000611bef848285016119bf565b91505092915050565b600060208284031215611c0a57600080fd5b6000611c18848285016119d4565b91505092915050565b600060208284031215611c3357600080fd5b6000611c4184828501611a13565b91505092915050565b611c5381611f51565b82525050565b611c6281611f63565b82525050565b6000611c7382611e53565b611c7d8185611e69565b9350611c8d818560208601611fd4565b611c96816121a0565b840191505092915050565b6000611cac82611e5e565b611cb68185611e7a565b9350611cc6818560208601611fd4565b611ccf816121a0565b840191505092915050565b6000611ce582611e5e565b611cef8185611e8b565b9350611cff818560208601611fd4565b80840191505092915050565b611d1481611fbb565b82525050565b6000611d268285611cda565b9150611d328284611cda565b91508190509392505050565b6000602082019050611d536000830184611c4a565b92915050565b6000608082019050611d6e6000830187611c4a565b611d7b6020830186611c4a565b611d886040830185611d0b565b8181036060830152611d9a8184611c68565b905095945050505050565b6000602082019050611dba6000830184611c59565b92915050565b60006020820190508181036000830152611dda8184611ca1565b905092915050565b6000602082019050611df76000830184611d0b565b92915050565b6000611e07611e18565b9050611e138282612039565b919050565b6000604051905090565b600067ffffffffffffffff821115611e3d57611e3c612171565b5b611e46826121a0565b9050602081019050919050565b600081519050919050565b600081519050919050565b600082825260208201905092915050565b600082825260208201905092915050565b600081905092915050565b6000611ea182611fbb565b9150611eac83611fbb565b9250827fffffffffffffffffffffffffffffffffffffffffffffffffffffffffffffffff03821115611ee157611ee06120e4565b5b828201905092915050565b6000611ef782611fbb565b9150611f0283611fbb565b925082611f1257611f11612113565b5b828204905092915050565b6000611f2882611fbb565b9150611f3383611fbb565b925082821015611f4657611f456120e4565b5b828203905092915050565b6000611f5c82611f9b565b9050919050565b60008115159050919050565b60007fffffffff0000000000000000000000000000000000000000000000000000000082169050919050565b600073ffffffffffffffffffffffffffffffffffffffff82169050919050565b6000819050919050565b82818337600083830152505050565b60005b83811015611ff2578082015181840152602081019050611fd7565b83811115612001576000848401525b50505050565b6000600282049050600182168061201f57607f821691505b6020821081141561203357612032612142565b5b50919050565b612042826121a0565b810181811067ffffffffffffffff8211171561206157612060612171565b5b80604052505050565b600061207582611fbb565b91507fffffffffffffffffffffffffffffffffffffffffffffffffffffffffffffffff8214156120a8576120a76120e4565b5b600182019050919050565b60006120be82611fbb565b91506120c983611fbb565b9250826120d9576120d8612113565b5b828206905092915050565b7f4e487b7100000000000000000000000000000000000000000000000000000000600052601160045260246000fd5b7f4e487b7100000000000000000000000000000000000000000000000000000000600052601260045260246000fd5b7f4e487b7100000000000000000000000000000000000000000000000000000000600052602260045260246000fd5b7f4e487b7100000000000000000000000000000000000000000000000000000000600052604160045260246000fd5b6000601f19601f8301169050919050565b6121ba81611f51565b81146121c557600080fd5b50565b6121d181611f63565b81146121dc57600080fd5b50565b6121e881611f6f565b81146121f357600080fd5b50565b6121ff81611fbb565b811461220a57600080fd5b5056fea2646970667358221220036334e5e647a20499fe63610e9db5148708b300ebb66ed30e8423d7b867334f64736f6c63430008040033",
  "linkReferences": {},
  "deployedLinkReferences": {}
}